{
  "transactions": [
    {
      "hash": "0x203c9958e7b48b3cb9c868a52d17ed05d591fdb5834f8b9ca558e911114a42f2",
      "transactionType": "CREATE",
      "contractName": "TokenAirdrop",
      "contractAddress": "0x897c51baff84b70081bae0d64de2fff4aabae9ff",
      "function": null,
      "arguments": null,
      "transaction": {
        "from": "0xc1df2461bae83cf84431d71996187414a1c85d8e",
        "gas": "0x109ccc",
        "value": "0x0",
        "input": "0x608080604052346026575f80546001600160a01b03191633179055610dc4908161002b8239f35b5f80fdfe60806040526004361015610011575f80fd5b5f3560e01c806306b091f91461095757806333031cd0146106f75780633aecd0e31461066d57806340a0a8061461042c57806366168bd7146103495780638da5cb5b14610322578063a08146ba1461012f5763f2fde38b14610071575f80fd5b3461012b57602036600319011261012b5761008a610af6565b5f546001600160a01b038116916100a2338414610b3d565b6001600160a01b03169182156100e75782907f8be0079c531659141344cd1fd0a4f28419497f9722a3daafe3b4186f6b6457e05f80a36001600160a01b031916175f55005b606460405162461bcd60e51b815260206004820152602060248201527f4e6577206f776e65722063616e6e6f74206265207a65726f20616464726573736044820152fd5b5f80fd5b3461012b57606036600319011261012b57610148610af6565b60243567ffffffffffffffff811161012b57610168903690600401610b0c565b90916044359061018260018060a01b035f54163314610b3d565b61018d831515610bc7565b610198821515610c30565b6001600160a01b0316926101ac8383610d7b565b916040516370a0823160e01b8152306004820152602081602481895afa80156102e15784905f906102ec575b6101e492501015610c7c565b5f5b84811061022057857f171b2f9dc7a4c7eaa8ca718bcac62fbec15d147f033f38e42971b7ccabe9a4696040878782519182526020820152a2005b61028c9061024a6001600160a01b0361024261023d848a89610c0c565b610cd7565b161515610ceb565b60208361025b61023d848a89610c0c565b60405163a9059cbb60e01b81526001600160a01b039091166004820152602481019190915292839081906044820190565b03815f8b5af19182156102e1576001926102ad915f916102b3575b50610d37565b016101e6565b6102d4915060203d81116102da575b6102cc8183610b79565b810190610baf565b896102a7565b503d6102c2565b6040513d5f823e3d90fd5b50506020813d60201161031a575b8161030760209383610b79565b8101031261012b57836101e491516101d8565b3d91506102fa565b3461012b575f36600319011261012b575f546040516001600160a01b039091168152602090f35b3461012b57604036600319011261012b575f6020610365610af6565b606460243561037e60018060a01b038654163314610b3d565b610389811515610c30565b6040516323b872dd60e01b815233600482015230602482015260448101919091529384928391906001600160a01b03165af19081156102e1575f9161040d575b50156103d157005b60405162461bcd60e51b8152602060048201526014602482015273151bdad95b8819195c1bdcda5d0819985a5b195960621b6044820152606490fd5b610426915060203d6020116102da576102cc8183610b79565b816103c9565b3461012b5760a036600319011261012b57610445610af6565b60243567ffffffffffffffff811161012b57610465903690600401610b0c565b9160443590606435916084359161048660018060a01b035f54163314610b3d565b82841015610632578583116105ed576104a0821515610c30565b6001600160a01b031694838303948386116105d9576104bf8684610d7b565b946040516370a0823160e01b81523060048201526020816024818c5afa80156102e15787905f906105a3575b6104f792501015610c7c565b84811061053157877f171b2f9dc7a4c7eaa8ca718bcac62fbec15d147f033f38e42971b7ccabe9a4696040898982519182526020820152a2005b61055f9061054e6001600160a01b0361024261023d848888610c0c565b60208561025b61023d848888610c0c565b03815f8d5af19182156102e15760019261057f915f916105855750610d37565b016104f7565b61059d915060203d81116102da576102cc8183610b79565b8b6102a7565b50506020813d6020116105d1575b816105be60209383610b79565b8101031261012b57866104f791516104eb565b3d91506105b1565b634e487b7160e01b5f52601160045260245ffd5b60405162461bcd60e51b815260206004820152601760248201527f456e6420696e646578206f7574206f6620626f756e64730000000000000000006044820152606490fd5b60405162461bcd60e51b8152602060048201526013602482015272496e76616c69642062617463682072616e676560681b6044820152606490fd5b3461012b57602036600319011261012b57602460206001600160a01b03610692610af6565b16604051928380926370a0823160e01b82523060048301525afa80156102e1575f906106c4575b602090604051908152f35b506020813d6020116106ef575b816106de60209383610b79565b8101031261012b57602090516106b9565b3d91506106d1565b3461012b57606036600319011261012b57610710610af6565b60243567ffffffffffffffff811161012b57610730903690600401610b0c565b9060443567ffffffffffffffff811161012b57610751903690600401610b0c565b91909361076860018060a01b035f54163314610b3d565b610773841515610bc7565b828403610919576001600160a01b0316935f92835b8181106108e457506040516370a0823160e01b81523060048201526020816024818a5afa80156102e15785905f906108ae575b6107c792501015610c7c565b5f5b85811061080357867f171b2f9dc7a4c7eaa8ca718bcac62fbec15d147f033f38e42971b7ccabe9a4696040888882519182526020820152a2005b61086a906108206001600160a01b0361024261023d848b8a610c0c565b602061083061023d838a89610c0c565b61083b838688610c0c565b60405163a9059cbb60e01b81526001600160a01b03909216600483015235602482015292839081906044820190565b03815f8c5af19182156102e15760019261088a915f916108905750610d37565b016107c9565b6108a8915060203d81116102da576102cc8183610b79565b8a6102a7565b50506020813d6020116108dc575b816108c960209383610b79565b8101031261012b57846107c791516107bb565b3d91506108bc565b936108fb6108f3868486610c0c565b351515610c30565b610906858385610c0c565b3581018091116105d95793600101610788565b60405162461bcd60e51b8152602060048201526016602482015275082e4e4c2f2e640d8cadccee8d040dad2e6dac2e8c6d60531b6044820152606490fd5b3461012b57604036600319011261012b57610970610af6565b5f54602435916001600160a01b039091169061098d338314610b3d565b6040516370a0823160e01b81523060048201526001600160a01b03909116929081602082602481885afa9182156102e1575f92610ac2575b5015610aba575b8111610a7e5760405163a9059cbb60e01b81526001600160a01b03929092166004830152602482015290602090829060449082905f905af19081156102e1575f91610a5f575b5015610a1a57005b60405162461bcd60e51b815260206004820152601760248201527f546f6b656e207769746864726177616c206661696c65640000000000000000006044820152606490fd5b610a78915060203d6020116102da576102cc8183610b79565b81610a12565b60405162461bcd60e51b8152602060048201526014602482015273496e73756666696369656e742062616c616e636560601b6044820152606490fd5b9050806109cc565b9091506020813d602011610aee575b81610ade60209383610b79565b8101031261012b575190856109c5565b3d9150610ad1565b600435906001600160a01b038216820361012b57565b9181601f8401121561012b5782359167ffffffffffffffff831161012b576020808501948460051b01011161012b57565b15610b4457565b60405162461bcd60e51b815260206004820152600d60248201526c2737ba103a34329037bbb732b960991b6044820152606490fd5b90601f8019910116810190811067ffffffffffffffff821117610b9b57604052565b634e487b7160e01b5f52604160045260245ffd5b9081602091031261012b5751801515810361012b5790565b15610bce57565b60405162461bcd60e51b8152602060048201526016602482015275139bc81c9958da5c1a595b9d1cc81c1c9bdd9a59195960521b6044820152606490fd5b9190811015610c1c5760051b0190565b634e487b7160e01b5f52603260045260245ffd5b15610c3757565b60405162461bcd60e51b815260206004820152601d60248201527f416d6f756e74206d7573742062652067726561746572207468616e20300000006044820152606490fd5b15610c8357565b60405162461bcd60e51b815260206004820152602660248201527f496e73756666696369656e7420746f6b656e2062616c616e636520696e20636f6044820152651b9d1c9858dd60d21b6064820152608490fd5b356001600160a01b038116810361012b5790565b15610cf257565b60405162461bcd60e51b815260206004820152601960248201527f496e76616c696420726563697069656e742061646472657373000000000000006044820152606490fd5b15610d3e57565b60405162461bcd60e51b8152602060048201526015602482015274151bdad95b881d1c985b9cd9995c8819985a5b1959605a1b6044820152606490fd5b818102929181159184041417156105d95756fea26469706673582212201b5f8174c0457b9bfd65972d0fbad6c9a2959c9ea7106730e68dc7aff385504f64736f6c634300081c0033",
        "nonce": "0xc",
        "chainId": "0x38"
      },
      "additionalContracts": [],
      "isFixedGasLimit": false
    },
    {
      "hash": "0x772fcad1ec1eb803dcc46321ff56a7978d6162773a77c0e03c090959fead9cce",
      "transactionType": "CALL",
      "contractName": null,
      "contractAddress": "0x7c533ff74f965e9e040edbc6b4322601eb9fe022",
      "function": "setBurnFeeExempt(address,bool)",
      "arguments": [
        "0x897c51bAfF84B70081Bae0D64De2fFf4AAbAE9FF",
        "true"
      ],
      "transaction": {
        "from": "0xc1df2461bae83cf84431d71996187414a1c85d8e",
        "to": "0x7c533ff74f965e9e040edbc6b4322601eb9fe022",
        "gas": "0x11da3",
        "value": "0x0",
        "input": "0x6d910d5f000000000000000000000000897c51baff84b70081bae0d64de2fff4aabae9ff0000000000000000000000000000000000000000000000000000000000000001",
        "nonce": "0xd",
        "chainId": "0x38"
      },
      "additionalContracts": [],
      "isFixedGasLimit": false
    },
    {
      "hash": "0x0970dd4ea701f3dfbaee96f65dd3e889c0c0bcb50830417b435a52498ca4e9e2",
      "transactionType": "CALL",
      "contractName": null,
      "contractAddress": "0x7c533ff74f965e9e040edbc6b4322601eb9fe022",
      "function": "setBurnFeeExempt(address,bool)",
      "arguments": [
        "0xCd9FBDaF769a42C4798553C1029bbBf9c16958C3",
        "true"
      ],
      "transaction": {
        "from": "0xc1df2461bae83cf84431d71996187414a1c85d8e",
        "to": "0x7c533ff74f965e9e040edbc6b4322601eb9fe022",
        "gas": "0x12e83",
        "value": "0x0",
        "input": "0x6d910d5f000000000000000000000000cd9fbdaf769a42c4798553c1029bbbf9c16958c30000000000000000000000000000000000000000000000000000000000000001",
        "nonce": "0xe",
        "chainId": "0x38"
      },
      "additionalContracts": [],
      "isFixedGasLimit": false
    }
  ],
  "receipts": [
    {
      "status": "0x1",
      "cumulativeGasUsed": "0xdf8d90",
      "logs": [],
      "logsBloom": "0x00000000000000000000000000000000000000000000000000000000000000000000000000000000000000000000000000000000000000000000000000000000000000000000000000000000000000000000000000000000000000000000000000000000000000000000000000000000000000000000000000000000000000000000000000000000000000000000000000000000000000000000000000000000000000000000000000000000000000000000000000000000000000000000000000000000000000000000000000000000000000000000000000000000000000000000000000000000000000000000000000000000000000000000000000000000",
      "type": "0x0",
      "transactionHash": "0x203c9958e7b48b3cb9c868a52d17ed05d591fdb5834f8b9ca558e911114a42f2",
      "transactionIndex": "0x52",
      "blockHash": "0xfbec7dc480093e102aebbe3381f4627a8c2a40ee4e5e915502fc8083b4f6f307",
      "blockNumber": "0x3ac51aa",
      "gasUsed": "0xcc762",
      "effectiveGasPrice": "0x5f5e100",
      "from": "0xc1df2461bae83cf84431d71996187414a1c85d8e",
      "to": null,
      "contractAddress": "0x897c51baff84b70081bae0d64de2fff4aabae9ff"
    },
    {
      "status": "0x1",
      "cumulativeGasUsed": "0xe05c5d",
      "logs": [
        {
          "address": "0x7c533ff74f965e9e040edbc6b4322601eb9fe022",
          "topics": [
            "0x8cb68fb7f7f7e4e8c19aa01d82dc6e9c378be66803ac24a5d28c43822086eb21",
            "0x000000000000000000000000897c51baff84b70081bae0d64de2fff4aabae9ff"
          ],
          "data": "0x0000000000000000000000000000000000000000000000000000000000000001",
          "blockHash": "0xfbec7dc480093e102aebbe3381f4627a8c2a40ee4e5e915502fc8083b4f6f307",
          "blockNumber": "0x3ac51aa",
          "transactionHash": "0x772fcad1ec1eb803dcc46321ff56a7978d6162773a77c0e03c090959fead9cce",
          "transactionIndex": "0x53",
          "logIndex": "0x1b4",
          "removed": false
        }
      ],
      "logsBloom": "0x00000000000000000000000000100000000000000000000000000000000000000000000000000000000000010000000000000000000000000000000000000000000000000000000000000000000000000000000000000000000000000000000001000000400000000000000000000000000000000000000000000000000000000800000000000000000000000000000000000000000000000000000000000000001000000000000000000000000000000000000000000080000000000000000000000000000000000000000000000000000000000000000000000000000000000000000000000000000000000001000000000000000100000000000000000000",
      "type": "0x0",
      "transactionHash": "0x772fcad1ec1eb803dcc46321ff56a7978d6162773a77c0e03c090959fead9cce",
      "transactionIndex": "0x53",
      "blockHash": "0xfbec7dc480093e102aebbe3381f4627a8c2a40ee4e5e915502fc8083b4f6f307",
      "blockNumber": "0x3ac51aa",
      "gasUsed": "0xcecd",
      "effectiveGasPrice": "0x5f5e100",
      "from": "0xc1df2461bae83cf84431d71996187414a1c85d8e",
      "to": "0x7c533ff74f965e9e040edbc6b4322601eb9fe022",
      "contractAddress": null
    },
    {
      "status": "0x1",
      "cumulativeGasUsed": "0xe12b36",
      "logs": [
        {
          "address": "0x7c533ff74f965e9e040edbc6b4322601eb9fe022",
          "topics": [
            "0x8cb68fb7f7f7e4e8c19aa01d82dc6e9c378be66803ac24a5d28c43822086eb21",
            "0x000000000000000000000000cd9fbdaf769a42c4798553c1029bbbf9c16958c3"
          ],
          "data": "0x0000000000000000000000000000000000000000000000000000000000000001",
          "blockHash": "0xfbec7dc480093e102aebbe3381f4627a8c2a40ee4e5e915502fc8083b4f6f307",
          "blockNumber": "0x3ac51aa",
          "transactionHash": "0x0970dd4ea701f3dfbaee96f65dd3e889c0c0bcb50830417b435a52498ca4e9e2",
          "transactionIndex": "0x54",
          "logIndex": "0x1b5",
          "removed": false
        }
      ],
      "logsBloom": "0x00000000000000000000000000000000000000000000000000000000000000000000000000000000000000000000000000000000000000000000000000000000000000000000000040000000000000000000000000800000000000000000000001000000400000000000000000000000000000000000000000000000000000000000000000000000000000000000000000000000000000000000000000000000001000000000000000000000000000000000000000000080000000000000000000000000000000000000000000000000000000000000000000000000000000000000000000000000040000000001000000000000000100000000000000000000",
      "type": "0x0",
      "transactionHash": "0x0970dd4ea701f3dfbaee96f65dd3e889c0c0bcb50830417b435a52498ca4e9e2",
      "transactionIndex": "0x54",
      "blockHash": "0xfbec7dc480093e102aebbe3381f4627a8c2a40ee4e5e915502fc8083b4f6f307",
      "blockNumber": "0x3ac51aa",
      "gasUsed": "0xced9",
      "effectiveGasPrice": "0x5f5e100",
      "from": "0xc1df2461bae83cf84431d71996187414a1c85d8e",
      "to": "0x7c533ff74f965e9e040edbc6b4322601eb9fe022",
      "contractAddress": null
    }
  ],
  "libraries": [],
  "pending": [],
  "returns": {},
  "timestamp": 1758217404,
  "chain": 56,
  "commit": "a9d70dd"
}