{
  "transactions": [
    {
      "hash": "0x2174c4e5e36ba7104fb6f14625d6f1f9b8891d8e0a73f32ad0d61bd1e3d1364a",
      "transactionType": "CREATE",
      "contractName": "MockERC20",
      "contractAddress": "0x0719c5e01262b7cd68dec84ae8fa58d9263a239d",
      "function": null,
      "arguments": [
        "Mock USDT",
        "mUSDT",
        "6"
      ],
      "transaction": {
        "from": "0xba391f0b052eacdc3bf9a2ee1ebd091f8f9c3828",
        "gas": "0x99d2d",
        "value": "0x0",
        "input": "0x608060405234610330576109f48038038061001981610334565b9283398101906060818303126103305780516001600160401b0381116103305782610045918301610359565b60208201519092906001600160401b03811161033057604091610069918401610359565b91015160ff81168091036103305782516001600160401b03811161024157600354600181811c91168015610326575b602082101461022357601f81116102c3575b506020601f821160011461026057819293945f92610255575b50508160011b915f199060031b1c1916176003555b81516001600160401b03811161024157600454600181811c91168015610237575b602082101461022357601f81116101c0575b50602092601f821160011461015f57928192935f92610154575b50508160011b915f199060031b1c1916176004555b60ff19600254161760025560405161064990816103ab8239f35b015190505f80610125565b601f1982169360045f52805f20915f5b8681106101a85750836001959610610190575b505050811b0160045561013a565b01515f1960f88460031b161c191690555f8080610182565b9192602060018192868501518155019401920161016f565b60045f527f8a35acfbc15ff81a39ae7d344fd709f28e8600b4aa8c65c6b64bfe7fe36bd19b601f830160051c81019160208410610219575b601f0160051c01905b81811061020e575061010b565b5f8155600101610201565b90915081906101f8565b634e487b7160e01b5f52602260045260245ffd5b90607f16906100f9565b634e487b7160e01b5f52604160045260245ffd5b015190505f806100c3565b601f1982169060035f52805f20915f5b8181106102ab57509583600195969710610293575b505050811b016003556100d8565b01515f1960f88460031b161c191690555f8080610285565b9192602060018192868b015181550194019201610270565b60035f527fc2575a0e9e593c00f959f8c92f12db2869c3395a3b0502d05e2516446f71f85b601f830160051c8101916020841061031c575b601f0160051c01905b81811061031157506100aa565b5f8155600101610304565b90915081906102fb565b90607f1690610098565b5f80fd5b6040519190601f01601f191682016001600160401b0381118382101761024157604052565b81601f82011215610330578051906001600160401b03821161024157610388601f8301601f1916602001610334565b928284526020838301011161033057815f9260208093018386015e830101529056fe60806040526004361015610011575f80fd5b5f3560e01c806306fdde0314610477578063095ea7b31461043057806318160ddd1461041357806323b872dd14610312578063313ce567146102f257806340c10f19146102a657806370a082311461026f57806395d89b4114610151578063a9059cbb146100db5763dd62ed3e14610087575f80fd5b346100d75760403660031901126100d7576100a0610576565b6100a861058c565b6001600160a01b039182165f908152600160209081526040808320949093168252928352819020549051908152f35b5f80fd5b346100d75760403660031901126100d7576100f4610576565b60243590335f525f60205261010f8260405f205410156105a2565b335f525f60205260405f206101258382546105e5565b905560018060a01b03165f525f60205261014460405f20918254610606565b9055602060405160018152f35b346100d7575f3660031901126100d7576040515f6004548060011c90600181168015610265575b6020831081146102515782855290811561023557506001146101df575b50819003601f01601f191681019067ffffffffffffffff8211818310176101cb57604082905281906101c7908261054c565b0390f35b634e487b7160e01b5f52604160045260245ffd5b60045f9081529091507f8a35acfbc15ff81a39ae7d344fd709f28e8600b4aa8c65c6b64bfe7fe36bd19b5b82821061021f57506020915082010182610195565b600181602092548385880101520191019061020a565b90506020925060ff191682840152151560051b82010182610195565b634e487b7160e01b5f52602260045260245ffd5b91607f1691610178565b346100d75760203660031901126100d7576001600160a01b03610290610576565b165f525f602052602060405f2054604051908152f35b346100d75760403660031901126100d7576102ed6102c2610576565b6024359060018060a01b03165f525f60205260405f206102e3828254610606565b9055600554610606565b600555005b346100d7575f3660031901126100d757602060ff60025416604051908152f35b346100d75760603660031901126100d75761032b610576565b61033361058c565b6044359160018060a01b031690815f525f6020526103578360405f205410156105a2565b5f82815260016020908152604080832033845290915290205483116103d557815f525f60205260405f2061038c8482546105e5565b905560018060a01b03165f525f60205260405f206103ab838254610606565b90555f52600160205260405f2060018060a01b0333165f5260205261014460405f209182546105e5565b60405162461bcd60e51b8152602060048201526016602482015275496e73756666696369656e7420616c6c6f77616e636560501b6044820152606490fd5b346100d7575f3660031901126100d7576020600554604051908152f35b346100d75760403660031901126100d757610449610576565b335f52600160205260405f209060018060a01b03165f5260205260405f206024359055602060405160018152f35b346100d7575f3660031901126100d7576040515f6003548060011c90600181168015610542575b6020831081146102515782855290811561023557506001146104ec5750819003601f01601f191681019067ffffffffffffffff8211818310176101cb57604082905281906101c7908261054c565b60035f9081529091507fc2575a0e9e593c00f959f8c92f12db2869c3395a3b0502d05e2516446f71f85b5b82821061052c57506020915082010182610195565b6001816020925483858801015201910190610517565b91607f169161049e565b602060409281835280519182918282860152018484015e5f828201840152601f01601f1916010190565b600435906001600160a01b03821682036100d757565b602435906001600160a01b03821682036100d757565b156105a957565b60405162461bcd60e51b8152602060048201526014602482015273496e73756666696369656e742062616c616e636560601b6044820152606490fd5b919082039182116105f257565b634e487b7160e01b5f52601160045260245ffd5b919082018092116105f25756fea264697066735822122035cf601a3a27e6051e48a06e38c2be1a9131296096c58f2dd135d3ffd49c9ec464736f6c634300081c0033000000000000000000000000000000000000000000000000000000000000006000000000000000000000000000000000000000000000000000000000000000a0000000000000000000000000000000000000000000000000000000000000000600000000000000000000000000000000000000000000000000000000000000094d6f636b2055534454000000000000000000000000000000000000000000000000000000000000000000000000000000000000000000000000000000000000056d55534454000000000000000000000000000000000000000000000000000000",
        "nonce": "0x6",
        "chainId": "0x61"
      },
      "additionalContracts": [],
      "isFixedGasLimit": false
    },
    {
      "hash": "0x6dbc9615610d05492013d43d5a684b34ced6b8914c7ea4bdcffe70cf3c81c77f",
      "transactionType": "CALL",
      "contractName": "MockERC20",
      "contractAddress": "0x0719c5e01262b7cd68dec84ae8fa58d9263a239d",
      "function": "mint(address,uint256)",
      "arguments": [
        "0xbA391F0B052Eacdc3Bf9a2ee1ebD091f8f9c3828",
        "1000000000"
      ],
      "transaction": {
        "from": "0xba391f0b052eacdc3bf9a2ee1ebd091f8f9c3828",
        "to": "0x0719c5e01262b7cd68dec84ae8fa58d9263a239d",
        "gas": "0x165d1",
        "value": "0x0",
        "input": "0x40c10f19000000000000000000000000ba391f0b052eacdc3bf9a2ee1ebd091f8f9c3828000000000000000000000000000000000000000000000000000000003b9aca00",
        "nonce": "0x7",
        "chainId": "0x61"
      },
      "additionalContracts": [],
      "isFixedGasLimit": false
    },
    {
      "hash": "0xb66f98a0007c4554ac697e9b966e34a685533995230f187ce5427895ab960f09",
      "transactionType": "CREATE",
      "contractName": "MockERC20",
      "contractAddress": "0x4ccc5033fea1d45fe6270e0c78534daf0c505ee6",
      "function": null,
      "arguments": [
        "Mock USDC",
        "mUSDC",
        "6"
      ],
      "transaction": {
        "from": "0xba391f0b052eacdc3bf9a2ee1ebd091f8f9c3828",
        "gas": "0x99d2d",
        "value": "0x0",
        "input": "0x608060405234610330576109f48038038061001981610334565b9283398101906060818303126103305780516001600160401b0381116103305782610045918301610359565b60208201519092906001600160401b03811161033057604091610069918401610359565b91015160ff81168091036103305782516001600160401b03811161024157600354600181811c91168015610326575b602082101461022357601f81116102c3575b506020601f821160011461026057819293945f92610255575b50508160011b915f199060031b1c1916176003555b81516001600160401b03811161024157600454600181811c91168015610237575b602082101461022357601f81116101c0575b50602092601f821160011461015f57928192935f92610154575b50508160011b915f199060031b1c1916176004555b60ff19600254161760025560405161064990816103ab8239f35b015190505f80610125565b601f1982169360045f52805f20915f5b8681106101a85750836001959610610190575b505050811b0160045561013a565b01515f1960f88460031b161c191690555f8080610182565b9192602060018192868501518155019401920161016f565b60045f527f8a35acfbc15ff81a39ae7d344fd709f28e8600b4aa8c65c6b64bfe7fe36bd19b601f830160051c81019160208410610219575b601f0160051c01905b81811061020e575061010b565b5f8155600101610201565b90915081906101f8565b634e487b7160e01b5f52602260045260245ffd5b90607f16906100f9565b634e487b7160e01b5f52604160045260245ffd5b015190505f806100c3565b601f1982169060035f52805f20915f5b8181106102ab57509583600195969710610293575b505050811b016003556100d8565b01515f1960f88460031b161c191690555f8080610285565b9192602060018192868b015181550194019201610270565b60035f527fc2575a0e9e593c00f959f8c92f12db2869c3395a3b0502d05e2516446f71f85b601f830160051c8101916020841061031c575b601f0160051c01905b81811061031157506100aa565b5f8155600101610304565b90915081906102fb565b90607f1690610098565b5f80fd5b6040519190601f01601f191682016001600160401b0381118382101761024157604052565b81601f82011215610330578051906001600160401b03821161024157610388601f8301601f1916602001610334565b928284526020838301011161033057815f9260208093018386015e830101529056fe60806040526004361015610011575f80fd5b5f3560e01c806306fdde0314610477578063095ea7b31461043057806318160ddd1461041357806323b872dd14610312578063313ce567146102f257806340c10f19146102a657806370a082311461026f57806395d89b4114610151578063a9059cbb146100db5763dd62ed3e14610087575f80fd5b346100d75760403660031901126100d7576100a0610576565b6100a861058c565b6001600160a01b039182165f908152600160209081526040808320949093168252928352819020549051908152f35b5f80fd5b346100d75760403660031901126100d7576100f4610576565b60243590335f525f60205261010f8260405f205410156105a2565b335f525f60205260405f206101258382546105e5565b905560018060a01b03165f525f60205261014460405f20918254610606565b9055602060405160018152f35b346100d7575f3660031901126100d7576040515f6004548060011c90600181168015610265575b6020831081146102515782855290811561023557506001146101df575b50819003601f01601f191681019067ffffffffffffffff8211818310176101cb57604082905281906101c7908261054c565b0390f35b634e487b7160e01b5f52604160045260245ffd5b60045f9081529091507f8a35acfbc15ff81a39ae7d344fd709f28e8600b4aa8c65c6b64bfe7fe36bd19b5b82821061021f57506020915082010182610195565b600181602092548385880101520191019061020a565b90506020925060ff191682840152151560051b82010182610195565b634e487b7160e01b5f52602260045260245ffd5b91607f1691610178565b346100d75760203660031901126100d7576001600160a01b03610290610576565b165f525f602052602060405f2054604051908152f35b346100d75760403660031901126100d7576102ed6102c2610576565b6024359060018060a01b03165f525f60205260405f206102e3828254610606565b9055600554610606565b600555005b346100d7575f3660031901126100d757602060ff60025416604051908152f35b346100d75760603660031901126100d75761032b610576565b61033361058c565b6044359160018060a01b031690815f525f6020526103578360405f205410156105a2565b5f82815260016020908152604080832033845290915290205483116103d557815f525f60205260405f2061038c8482546105e5565b905560018060a01b03165f525f60205260405f206103ab838254610606565b90555f52600160205260405f2060018060a01b0333165f5260205261014460405f209182546105e5565b60405162461bcd60e51b8152602060048201526016602482015275496e73756666696369656e7420616c6c6f77616e636560501b6044820152606490fd5b346100d7575f3660031901126100d7576020600554604051908152f35b346100d75760403660031901126100d757610449610576565b335f52600160205260405f209060018060a01b03165f5260205260405f206024359055602060405160018152f35b346100d7575f3660031901126100d7576040515f6003548060011c90600181168015610542575b6020831081146102515782855290811561023557506001146104ec5750819003601f01601f191681019067ffffffffffffffff8211818310176101cb57604082905281906101c7908261054c565b60035f9081529091507fc2575a0e9e593c00f959f8c92f12db2869c3395a3b0502d05e2516446f71f85b5b82821061052c57506020915082010182610195565b6001816020925483858801015201910190610517565b91607f169161049e565b602060409281835280519182918282860152018484015e5f828201840152601f01601f1916010190565b600435906001600160a01b03821682036100d757565b602435906001600160a01b03821682036100d757565b156105a957565b60405162461bcd60e51b8152602060048201526014602482015273496e73756666696369656e742062616c616e636560601b6044820152606490fd5b919082039182116105f257565b634e487b7160e01b5f52601160045260245ffd5b919082018092116105f25756fea264697066735822122035cf601a3a27e6051e48a06e38c2be1a9131296096c58f2dd135d3ffd49c9ec464736f6c634300081c0033000000000000000000000000000000000000000000000000000000000000006000000000000000000000000000000000000000000000000000000000000000a0000000000000000000000000000000000000000000000000000000000000000600000000000000000000000000000000000000000000000000000000000000094d6f636b2055534443000000000000000000000000000000000000000000000000000000000000000000000000000000000000000000000000000000000000056d55534443000000000000000000000000000000000000000000000000000000",
        "nonce": "0x8",
        "chainId": "0x61"
      },
      "additionalContracts": [],
      "isFixedGasLimit": false
    },
    {
      "hash": "0xb781140b3174f3c862564a9ea89a4736037a6fdbf0319e2f63b81519b01c0e0a",
      "transactionType": "CALL",
      "contractName": "MockERC20",
      "contractAddress": "0x4ccc5033fea1d45fe6270e0c78534daf0c505ee6",
      "function": "mint(address,uint256)",
      "arguments": [
        "0xbA391F0B052Eacdc3Bf9a2ee1ebD091f8f9c3828",
        "1000000000"
      ],
      "transaction": {
        "from": "0xba391f0b052eacdc3bf9a2ee1ebd091f8f9c3828",
        "to": "0x4ccc5033fea1d45fe6270e0c78534daf0c505ee6",
        "gas": "0x165d1",
        "value": "0x0",
        "input": "0x40c10f19000000000000000000000000ba391f0b052eacdc3bf9a2ee1ebd091f8f9c3828000000000000000000000000000000000000000000000000000000003b9aca00",
        "nonce": "0x9",
        "chainId": "0x61"
      },
      "additionalContracts": [],
      "isFixedGasLimit": false
    },
    {
      "hash": "0x159f15e42e50db79fd66c071715daec026780c3b3683b70fd0f82a63f7c0bba3",
      "transactionType": "CREATE",
      "contractName": "MockChainlinkFeed",
      "contractAddress": "0x9ff61118637b492acee674c4f38a121ae486aa4e",
      "function": null,
      "arguments": [
        "22000000000",
        "8"
      ],
      "transaction": {
        "from": "0xba391f0b052eacdc3bf9a2ee1ebd091f8f9c3828",
        "gas": "0x3af7a",
        "value": "0x0",
        "input": "0x608034606c57601f6101ac38819003918201601f19168301916001600160401b038311848410176070578084926040948552833981010312606c57602081519101519060ff8216809203606c575f5560ff1960025416176002554260015560405161012790816100858239f35b5f80fd5b634e487b7160e01b5f52604160045260245ffdfe60808060405260043610156011575f80fd5b5f3560e01c908163313ce5671460d6575080637519ab501460bb578063a035b1fe1460a1578063d4c19bda1460875763feaf968c14604d575f80fd5b346083575f36600319011260835760a05f5460015460405191600183526020830152426040830152606082015260016080820152f35b5f80fd5b3460835760203660031901126083576004355f5542600155005b346083575f36600319011260835760205f54604051908152f35b346083575f3660031901126083576020600154604051908152f35b346083575f36600319011260835760209060ff600254168152f3fea2646970667358221220c950c0e30283e2c3f1833cf906ee1b72c7f0826e0559a276bedc4f2ce6ad0d8164736f6c634300081c0033000000000000000000000000000000000000000000000000000000051f4d5c000000000000000000000000000000000000000000000000000000000000000008",
        "nonce": "0xa",
        "chainId": "0x61"
      },
      "additionalContracts": [],
      "isFixedGasLimit": false
    },
    {
      "hash": "0x15635f5703eff15eb2453b00c30ee1c8e32a33b25c84bceecd3d8922a8beaa1b",
      "transactionType": "CREATE",
      "contractName": "PublicSale",
      "contractAddress": "0x8597d77653f3e9a99123e3da5c26b193066816c3",
      "function": null,
      "arguments": null,
      "transaction": {
        "from": "0xba391f0b052eacdc3bf9a2ee1ebd091f8f9c3828",
        "gas": "0x37e21f",
        "value": "0x0",
        "input": "0x60a080604052346100c85730608052610e10600a555f5160206131de5f395f51905f525460ff8160401c166100b9576002600160401b03196001600160401b03821601610066575b60405161311190816100cd8239608051818181610c2a0152611ee10152f35b6001600160401b0319166001600160401b039081175f5160206131de5f395f51905f525581527fc7f505b2f371ae2175ee4913f4499e1f2633a7b5936321eed1cdaeb6115181d290602090a15f80610047565b63f92ee8a960e01b5f5260045ffd5b5f80fdfe6080604052600436101561001a575b3615610018575f80fd5b005b5f3560e01c806301ffc9a71461039957806306ebf9001461039457806311ba51041461038f578063248a9ca31461038a5780632e325020146103855780632f2ff15d146103805780632f455ec71461037b5780632f48ab7d1461037657806331ad36ab1461037157806336568abe1461036c57806338fa4029146103675780633de50ade146103625780633e413bee1461035d5780633f4ba83a14610358578063453c2310146103535780634f1ef2861461034e578063522fe98e1461034957806352d1902d146103445780635c975abb1461033f5780635f3e849f1461033a57806362810c8114610335578063663d22691461033057806368428a1b1461032b5780636e793e5a14610326578063715018a61461032157806378b71db01461031c5780638456cb5914610317578063845ddcb2146103125780638da5cb5b1461030d5780639106d7ba1461030857806391d1485414610303578063932953e3146102fe5780639466d3fa146102f9578063a217fddf146102f4578063a4317ef4146102ef578063a7c60160146102ea578063ad3cb1cc146102e5578063aeccf735146102e0578063b66a0e5d146102db578063bd94fafc146102d6578063bfa5c70d146102d1578063c884ef83146102cc578063c91723be146102c7578063ca9d57df146102c2578063cff71f52146102bd578063d547741f146102b8578063d54ad2a1146102b3578063df5377fe146102ae578063e1afd7c6146102a9578063e268e4d3146102a4578063e36b0b371461029f578063eedbe31d1461029a578063f2fde38b14610295578063f60826ee14610290578063f72c0d8b1461028b5763febb066a0361000e57611d93565b611d59565b611d31565b611d04565b611cca565b611c82565b611c36565b611ae8565b6118f7565b6118da565b61188d565b611870565b6117ff565b6117e2565b6117a2565b61177b565b611756565b61170b565b611600565b6115a2565b61146c565b61144f565b611435565b6113ff565b6113e5565b611387565b61136a565b611336565b6112ec565b611246565b61121a565b6111b3565b611151565b61112f565b610f94565b610e09565b610cac565b610c7e565b610c18565b610bdd565b610b62565b610add565b610a5f565b610a37565b6109eb565b6109ce565b610986565b6107f6565b6107ce565b6107b1565b61075f565b6106a3565b610664565b61063c565b6103fd565b346103ef5760203660031901126103ef5760043563ffffffff60e01b81168091036103ef57602090637965db0b60e01b81149081156103de575b506040519015158152f35b6301ffc9a760e01b1490505f6103d3565b5f80fd5b5f9103126103ef57565b346103ef575f3660031901126103ef576104156125d6565b61041d61260e565b600654421061062d57335f908152600c602052604090205460ff1661061e57335f908152600b6020526040902054801561060f575f5461046d906001600160a01b03165b6001600160a01b031690565b6040516370a0823160e01b815230600482015290602090829060249082905afa80156105cc5782915f916105e0575b50106105d1576104ac8133612635565b906104c66104616104616104615f5460018060a01b031690565b90813b156103ef57604051637e806b5b60e01b81526001600160a01b0384166004820152915f908390602490829084905af19081156105cc577f878a47c50abada193112f7b3b5936d6fc3e514b02fdda01ae9cb01e44f792a5a92610599926105b2575b505f5461054390829086906001600160a01b0316612706565b335f908152600c6020526040902061056290805460ff19166001179055565b61057661057182600d54611e53565b600d55565b604080516001600160a01b03909516855260208501919091523393918291820190565b0390a261001860015f51602061309c5f395f51905f5255565b806105c05f6105c693610b0e565b806103f3565b5f61052a565b611e34565b630a17694f60e21b5f5260045ffd5b610602915060203d602011610608575b6105fa8183610b0e565b810190611e25565b5f61049c565b503d6105f0565b635b1894ab60e11b5f5260045ffd5b634bb49cb560e11b5f5260045ffd5b630d617e6360e21b5f5260045ffd5b346103ef575f3660031901126103ef576003546040516001600160a01b039091168152602090f35b346103ef5760203660031901126103ef57602061069b6004355f525f51602061305c5f395f51905f52602052600160405f20015490565b604051908152f35b346103ef5760203660031901126103ef57600435600e54811015610713576106cd6106d3916112cb565b50611e60565b80516040602083015192015180830383811161070e5760408051938452602084019490945292820152606081019190915280608081015b0390f35b611e3f565b60405162461bcd60e51b8152602060048201526013602482015272092dcecc2d8d2c840e6e8c2ceca40d2dcc8caf606b1b6044820152606490fd5b6001600160a01b038116036103ef57565b346103ef5760403660031901126103ef576100186024356004356107828261074e565b6107ac6107a7825f525f51602061305c5f395f51905f52602052600160405f20015490565b6127f2565b6129bb565b346103ef575f3660031901126103ef576020600e54604051908152f35b346103ef575f3660031901126103ef576001546040516001600160a01b039091168152602090f35b60203660031901126103ef5760043561080d6125d6565b61081561260e565b61082861082460085460ff1690565b1590565b61097757801561096857335f908152600b6020526040902061084d9082905b54611e53565b60075410610959576a108b2a2c2802909400000061086d82600954611e53565b1161094a5761087b816120d6565b1561094a5761088990612a63565b80341061093b5761089982612b7f565b335f908152600b602052604090206108b2838254611e53565b90556108c86108c383600954611e53565b600955565b80341161090e575b604080519283525f602084015282015233907fbee1a16799859362538b3f5288957d5005243ef2c3c98e5448b2849254f01076908060608101610599565b5f80808061091c8534611e99565b335af1610927611ea6565b506108d057633455d49560e11b5f5260045ffd5b6308e3fefd60e41b5f5260045ffd5b631e4d91e760e21b5f5260045ffd5b6335acf0d560e21b5f5260045ffd5b6307647d2360e01b5f5260045ffd5b63360a0dc760e11b5f5260045ffd5b346103ef5760403660031901126103ef576004356024356109a68161074e565b336001600160a01b038216036109bf5761001891612c9b565b63334bd91960e11b5f5260045ffd5b346103ef575f3660031901126103ef576020600f54604051908152f35b346103ef5760203660031901126103ef577f66cbca4f3c64fecf1dcb9ce094abcf7f68c3450a1d4e3a8e917dd621edb4ebe06020600435610a2a612d3b565b80600555604051908152a1005b346103ef575f3660031901126103ef576002546040516001600160a01b039091168152602090f35b346103ef575f3660031901126103ef57610a77612d3b565b5f51602061307c5f395f51905f525460ff811615610ace5760ff19165f51602061307c5f395f51905f52557f5db9ee0a495bf2e6ff9c91a7834c1ba4fdd244a5e8aa4e537bd38aeae4b073aa6020604051338152a1005b638dfc202b60e01b5f5260045ffd5b346103ef575f3660031901126103ef576020600754604051908152f35b634e487b7160e01b5f52604160045260245ffd5b90601f8019910116810190811067ffffffffffffffff821117610b3057604052565b610afa565b60405190610b44606083610b0e565b565b67ffffffffffffffff8111610b3057601f01601f191660200190565b60403660031901126103ef57600435610b7a8161074e565b6024359067ffffffffffffffff82116103ef57366023830112156103ef57816004013590610ba782610b46565b91610bb56040519384610b0e565b80835236602482860101116103ef576020815f92602461001897018387013784010152611ed5565b346103ef5760203660031901126103ef57600435610bfa8161074e565b60018060a01b03165f52600b602052602060405f2054604051908152f35b346103ef575f3660031901126103ef577f00000000000000000000000000000000000000000000000000000000000000006001600160a01b03163003610c6f5760206040515f51602061303c5f395f51905f528152f35b63703e46dd60e11b5f5260045ffd5b346103ef575f3660031901126103ef57602060ff5f51602061307c5f395f51905f5254166040519015158152f35b346103ef5760603660031901126103ef57600435610cc98161074e565b60243590610cd68261074e565b604435610ce1612d3b565b6001600160a01b038316928315610dfa578115610968575f54610d0c906001600160a01b0316610461565b6001600160a01b039384169381168414610d67575b5081610d527f401f439d865a766757ec78675925bd67198d5e78805aa41691b34b5d6a6cbbe693610d629386612706565b6040519081529081906020820190565b0390a3005b610d6f612d6e565b6040516370a0823160e01b815230600482015291602090839060249082905afa9182156105cc575f92610dd9575b5080821115610dca57610daf91611e99565b8211610dbb575f610d21565b631b145b7560e31b5f5260045ffd5b631aba610760e11b5f5260045ffd5b610df391925060203d602011610608576105fa8183610b0e565b905f610d9d565b6302e2cac760e41b5f5260045ffd5b346103ef5760203660031901126103ef57600435610e268161074e565b610e2e612d3b565b610e366125d6565b6001600160a01b03168015610dfa576001546040516370a0823160e01b8152306004820152906001600160a01b0316602082602481845afa9182156105cc575f92610f73575b50818381610f62575b50506002546040516370a0823160e01b81523060048201526001600160a01b039091169150602081602481855afa9081156105cc575f91610f43575b508381610f32575b5050504780610f0e575b6040805192835260208301919091527f7150ca1feaa3b1ac5b0e504dd0c6ebf56f6022fce6a7dd0a678ffd04ebafe726919081908101610599565b5f80808084875af1610f1e611ea6565b50610ed3576347ab04ab60e11b5f5260045ffd5b610f3b92612706565b5f8083610ec9565b610f5c915060203d602011610608576105fa8183610b0e565b5f610ec1565b610f6b92612706565b5f8183610e85565b610f8d91925060203d602011610608576105fa8183610b0e565b905f610e7c565b346103ef5760203660031901126103ef57600435600354610fbd906001600160a01b0316610461565b90604051633fabe5a360e21b815260a081600481865afa80156105cc575f5f925f905f936110f8575b505f8413156110845780159081156110e2575b506110d35769ffffffffffffffffffff8091169116106110d35760206004936040519485809263313ce56760e01b82525afa9283156105cc575f936110a2575b50601260ff8416116110935761106a61106561105f61105a611070956121c6565b612057565b94612088565b612099565b90612075565b9081156110845761070a91610d5291612d80565b638cfd185d60e01b5f5260045ffd5b6310bb3ca360e21b5f5260045ffd5b6110c591935060203d6020116110cc575b6110bd8183610b0e565b81019061203e565b915f611039565b503d6110b3565b633267dbad60e11b5f5260045ffd5b6110ed915042611e99565b600a5411155f610ff9565b9250505061111e915060a03d60a011611128575b6111168183610b0e565b810190612009565b929391505f610fe6565b503d61110c565b346103ef575f3660031901126103ef57602060ff600854166040519015158152f35b346103ef5760203660031901126103ef577f6e58a1b98725aea80d97a6ec56d47a331306e2b1714fbcc8bebcf7e794a274266020600435611190612d3b565b5f546111aa908290309033906001600160a01b0316612e1a565b604051908152a1005b346103ef575f3660031901126103ef576111cb612d3b565b5f51602061301c5f395f51905f5280546001600160a01b031981169091555f906001600160a01b03167f8be0079c531659141344cd1fd0a4f28419497f9722a3daafe3b4186f6b6457e08280a3005b346103ef5760203660031901126103ef5760406112386004356120d6565b825191825215156020820152f35b346103ef575f3660031901126103ef5761125e612d3b565b61126661260e565b600160ff195f51602061307c5f395f51905f525416175f51602061307c5f395f51905f52557f62e78cea01bee320cd4e420270b5ea74000d11b0c9f74754ebdbfc544b05a2586020604051338152a1005b634e487b7160e01b5f52603260045260245ffd5b600e548110156112e757600e5f52600360205f20910201905f90565b6112b7565b346103ef5760203660031901126103ef57600435600e548110156103ef576113156060916112cb565b50805490600260018201549101549060405192835260208301526040820152f35b346103ef575f3660031901126103ef575f51602061301c5f395f51905f52546040516001600160a01b039091168152602090f35b346103ef575f3660031901126103ef576020600954604051908152f35b346103ef5760403660031901126103ef57602060ff6113d96024356004356113ae8261074e565b5f525f51602061305c5f395f51905f52845260405f209060018060a01b03165f5260205260405f2090565b54166040519015158152f35b346103ef575f3660031901126103ef57602061069b612d6e565b346103ef5760203660031901126103ef5760043561141b612d3b565b801561142657600a55005b634dcf783160e01b5f5260045ffd5b346103ef575f3660031901126103ef5760206040515f8152f35b346103ef575f3660031901126103ef576020600654604051908152f35b346103ef5760203660031901126103ef576004356114886125d6565b61149061260e565b61149f61082460085460ff1690565b61097757801561096857335f908152600b602052604090206114c2908290610847565b60075410610959576a108b2a2c280290940000006114e282600954611e53565b1161094a576114f0816120d6565b1561094a576001547fbee1a16799859362538b3f5288957d5005243ef2c3c98e5448b2849254f0107691906115349082906001600160a01b03165b30903390612e1a565b61153d83612b7f565b335f908152600b60205260409020611556848254611e53565b90556115676108c384600954611e53565b60015461157c906001600160a01b0316610461565b604080519485526001600160a01b03909116602085015283015233918060608101610599565b346103ef575f3660031901126103ef5760408051906115c18183610b0e565b600582526020820191640352e302e360dc1b83528151928391602083525180918160208501528484015e5f828201840152601f01601f19168101030190f35b346103ef5760203660031901126103ef5760043561161c6125d6565b61162461260e565b61163361082460085460ff1690565b61097757801561096857335f908152600b60205260409020611656908290610847565b60075410610959576a108b2a2c2802909400000061167682600954611e53565b1161094a57611684816120d6565b1561094a576002547fbee1a16799859362538b3f5288957d5005243ef2c3c98e5448b2849254f0107691906116c39082906001600160a01b031661152b565b6116cc83612b7f565b335f908152600b602052604090206116e5848254611e53565b90556116f66108c384600954611e53565b60025461157c906001600160a01b0316610461565b346103ef575f3660031901126103ef57611723612d3b565b600160ff1960085416176008557f912ee23dde46ec889d6748212cce445d667f7041597691dc89e8549ad8bc0acb5f80a1005b346103ef575f3660031901126103ef5760206040516a108b2a2c280290940000008152f35b346103ef575f3660031901126103ef575f546040516001600160a01b039091168152602090f35b346103ef5760203660031901126103ef576004356117bf8161074e565b60018060a01b03165f52600c602052602060ff60405f2054166040519015158152f35b346103ef575f3660031901126103ef576020600554604051908152f35b346103ef5760203660031901126103ef5761181b6004356120d6565b1561182b57602090604051908152f35b60405162461bcd60e51b815260206004820152601c60248201527f4578636565647320617661696c61626c6520616c6c6f636174696f6e000000006044820152606490fd5b346103ef575f3660031901126103ef576020600a54604051908152f35b346103ef5760403660031901126103ef576100186024356004356118b08261074e565b6118d56107a7825f525f51602061305c5f395f51905f52602052600160405f20015490565b612c9b565b346103ef575f3660031901126103ef576020600d54604051908152f35b346103ef576101203660031901126103ef576004356119158161074e565b602435906119228261074e565b60443561192e8161074e565b60643561193a8161074e565b6084356119468161074e565b60a4356119528161074e565b60c4359160e4359361010435955f5160206130bc5f395f51905f52549867ffffffffffffffff61199961198b60ff8d60401c1615151590565b9b67ffffffffffffffff1690565b1680159081611aaf575b6001149081611aa5575b159081611a9c575b50611a8d576119f9988a6119f0600167ffffffffffffffff195f5160206130bc5f395f51905f525416175f5160206130bc5f395f51905f5255565b611a5857612212565b6119ff57005b611a2960ff60401b195f5160206130bc5f395f51905f5254165f5160206130bc5f395f51905f5255565b604051600181527fc7f505b2f371ae2175ee4913f4499e1f2633a7b5936321eed1cdaeb6115181d290602090a1005b611a88600160401b60ff60401b195f5160206130bc5f395f51905f525416175f5160206130bc5f395f51905f5255565b612212565b63f92ee8a960e01b5f5260045ffd5b9050155f6119b5565b303b1591506119ad565b8b91506119a3565b9181601f840112156103ef5782359167ffffffffffffffff83116103ef576020808501948460051b0101116103ef57565b346103ef5760403660031901126103ef5760043567ffffffffffffffff81116103ef57611b19903690600401611ab7565b9060243567ffffffffffffffff81116103ef57611b3a903690600401611ab7565b611b45929192612d3b565b808403611bf957611b578415156123e3565b611b5f61242f565b5f5b848110611b71576100185f600f55565b80611baa611b826001938887612499565b35611b8e838689612499565b35611b97610b35565b91825260208201525f60408201526124a9565b807f5a8da334e5dcda56741c841c76367039ac3d16ad85daad47f8b9b017c8514c68611bd7828988612499565b35611be383878a612499565b604080519283529035602083015290a201611b61565b60405162461bcd60e51b8152602060048201526015602482015274082e4e4c2f240d8cadccee8d040dad2e6dac2e8c6d605b1b6044820152606490fd5b346103ef5760203660031901126103ef577f97e4f91a4b7e108aff6d29a03d7b9f94705ad90ed51b377784a1943ea32257e76020600435611c75612d3b565b80600755604051908152a1005b346103ef575f3660031901126103ef57611c9a612d3b565b60ff19600854166008557fdf515ab57ec796fd111da4dd488177601b9465ce9c442de16857682b7f10297a5f80a1005b346103ef575f3660031901126103ef5760a0611ce46124f1565b926040929192519485526020850152604084015260608301526080820152f35b346103ef5760203660031901126103ef57610018600435611d248161074e565b611d2c612d3b565b612565565b346103ef575f3660031901126103ef576004546040516001600160a01b039091168152602090f35b346103ef575f3660031901126103ef5760206040517f189ab7a9244df0848122154315af71fe140f3db0fe014031783b0946b8c9d2e38152f35b346103ef5760203660031901126103ef57600435611daf612d3b565b42811115611de8576020817f6de97eb9b2c91c4ed87da2828a7611ff87b192b8ca8a23833fa9fa4347eb397192600655604051908152a1005b60405162461bcd60e51b81526020600482015260156024820152740496e76616c6964205447452074696d657374616d7605c1b6044820152606490fd5b908160209103126103ef575190565b6040513d5f823e3d90fd5b634e487b7160e01b5f52601160045260245ffd5b9190820180921161070e57565b906040516060810181811067ffffffffffffffff821117610b305760405260406002829480548452600181015460208501520154910152565b9190820391821161070e57565b3d15611ed0573d90611eb782610b46565b91611ec56040519384610b0e565b82523d5f602084013e565b606090565b90916001600160a01b037f000000000000000000000000000000000000000000000000000000000000000016308114908115611fd0575b50610c6f57611f19612783565b6001600160a01b038216928315611fc1576020600494604051958680926352d1902d60e01b82525afa5f9481611fa0575b50611f6b57634c9c8ce360e01b5f526001600160a01b03831660045260245ffd5b90915f51602061303c5f395f51905f528403611f8c57610b44929350612eb8565b632a87526960e21b5f52600484905260245ffd5b611fba91955060203d602011610608576105fa8183610b0e565b935f611f4a565b631787cf5b60e31b5f5260045ffd5b5f51602061303c5f395f51905f52546001600160a01b0316141590505f611f0c565b519069ffffffffffffffffffff821682036103ef57565b908160a09103126103ef5761201d81611ff2565b9160208201519160408101519161203b608060608401519301611ff2565b90565b908160209103126103ef575160ff811681036103ef5790565b9064e8d4a5100082029180830464e8d4a51000149015171561070e57565b8181029291811591840414171561070e57565b60ff166012039060ff821161070e57565b60ff16604d811161070e57600a0a90565b81156120b4570490565b634e487b7160e01b5f52601260045260245ffd5b5f19811461070e5760010190565b600e5490811561219c57600f5490925f5b84151580612193575b1561218b576121016106cd846112cb565b906121156020830151604084015190611e99565b8015612178579161215461215a9261216094808a115f1461216a5761214061214e91945b5185612075565b670de0b6b3a7640000900490565b90611e53565b96611e99565b926120c8565b925b9291936120e7565b5061214e6121408a94612139565b50949261218591506120c8565b92612162565b931592509050565b508383106120f0565b9190506121a8826121c6565b6121c16a108b2a2c280290940000009193600954611e53565b111590565b6121cf906120d6565b1561182b5790565b156121de57565b60405162461bcd60e51b815260206004820152600c60248201526b24b73b30b634b21030b2323960a11b6044820152606490fd5b92612302612350989795936122e0612324946122be61234b9a61229d6123469a60018060a01b031691821515806123d1575b806123bf575b806123ad575b8061239b575b80612389575b612265906121d7565b61226e81612e81565b612276612f7a565b61227e612f7a565b612286612e95565b61228e612f7a565b61229781612838565b506128e7565b5060018060a01b03166bffffffffffffffffffffffff60a01b5f5416175f55565b600180546001600160a01b0319166001600160a01b0392909216919091179055565b600280546001600160a01b0319166001600160a01b0392909216919091179055565b600380546001600160a01b0319166001600160a01b0392909216919091179055565b60018060a01b03166bffffffffffffffffffffffff60a01b6004541617600455565b600555565b600655565b80612381575061236969152d02c7e14af6800000600755565b61237860ff1960085416600855565b610b445f600f55565b600755612369565b506001600160a01b038116151561225c565b506001600160a01b038b161515612256565b506001600160a01b0389161515612250565b506001600160a01b038716151561224a565b506001600160a01b0385161515612244565b156123ea57565b60405162461bcd60e51b815260206004820152601b60248201527f4174206c65617374206f6e6520737461676520726571756972656400000000006044820152606490fd5b600e545f600e558061243e5750565b8060030290600382040361070e57600e5f527fbb7b4a454dc3493923482f07822329ed19e8244eff582cc204f8554c3620c3fd908101905b818110612481575050565b805f600392555f60018201555f600282015501612476565b91908110156112e75760051b0190565b600e54600160401b811015610b305760018101600e55600e548110156112e7576040600291600e5f52600360205f209102019280518455602081015160018501550151910155565b600e541561252a57600f54906125096106cd836112cb565b9081519260406020840151930151918284039184831161070e579493929190565b60055490600954806a108b2a2c28029094000000036a108b2a2c28029094000000811161070e575f93926a108b2a2c28029094000000929190565b6001600160a01b031680156125c3575f51602061301c5f395f51905f5280546001600160a01b0319811683179091556001600160a01b03167f8be0079c531659141344cd1fd0a4f28419497f9722a3daafe3b4186f6b6457e05f80a3565b631e4fbdf760e01b5f525f60045260245ffd5b60025f51602061309c5f395f51905f5254146125ff5760025f51602061309c5f395f51905f5255565b633ee5aeb560e01b5f5260045ffd5b60ff5f51602061307c5f395f51905f52541661262657565b63d93c066560e01b5f5260045ffd5b6004545f928392909183906001600160a01b031681549093906126ae90612664906001600160a01b0316610461565b6006546040516306c6790b60e51b602082019081526001600160a01b039384166024830152969092166044830152606482019390935260848082019390935291825260a482610b0e565b51925af16126ba611ea6565b901580156126fb575b6126ec5760200151906001600160a01b038216156126dd57565b63e1298d6360e01b5f5260045ffd5b636b8e657360e01b5f5260045ffd5b5060208151106126c3565b916040519163a9059cbb60e01b5f5260018060a01b031660045260245260205f60448180865af160015f5114811615612764575b604091909152155b6127495750565b635274afe760e01b5f526001600160a01b031660045260245ffd5b600181151661277a573d15833b1515161661273a565b503d5f823e3d90fd5b335f9081527fab71e3f32666744d246edff3f96e4bdafee2e9867098cdd118a979a7464786a8602052604090205460ff16156127bb57565b63e2517d3f60e01b5f52336004527f189ab7a9244df0848122154315af71fe140f3db0fe014031783b0946b8c9d2e360245260445ffd5b5f8181525f51602061305c5f395f51905f526020908152604080832033845290915290205460ff16156128225750565b63e2517d3f60e01b5f523360045260245260445ffd5b6001600160a01b0381165f9081527fb7db2dd08fcb62d0c9e08c51941cae53c267786a0b75803fb7960902fc8ef97d602052604090205460ff166128e2576001600160a01b03165f8181527fb7db2dd08fcb62d0c9e08c51941cae53c267786a0b75803fb7960902fc8ef97d60205260408120805460ff191660011790553391907f2f8788117e7eff1d82e926ec794901d17c78024a50270940304540a733656f0d8180a4600190565b505f90565b6001600160a01b0381165f9081527fab71e3f32666744d246edff3f96e4bdafee2e9867098cdd118a979a7464786a8602052604090205460ff166128e2576001600160a01b0381165f9081527fab71e3f32666744d246edff3f96e4bdafee2e9867098cdd118a979a7464786a860205260409020805460ff1916600117905533906001600160a01b03167f189ab7a9244df0848122154315af71fe140f3db0fe014031783b0946b8c9d2e37f2f8788117e7eff1d82e926ec794901d17c78024a50270940304540a733656f0d5f80a4600190565b5f8181525f51602061305c5f395f51905f52602090815260408083206001600160a01b038616845290915290205460ff16612a5d575f8181525f51602061305c5f395f51905f52602090815260408083206001600160a01b03861684529091529020805460ff1916600117905533916001600160a01b0316907f2f8788117e7eff1d82e926ec794901d17c78024a50270940304540a733656f0d5f80a4600190565b50505f90565b600354612a78906001600160a01b0316610461565b90604051633fabe5a360e21b815260a081600481865afa80156105cc575f5f925f905f93612b58575b505f841315611084578015908115612b42575b506110d35769ffffffffffffffffffff8091169116106110d35760206004936040519485809263313ce56760e01b82525afa9283156105cc575f93612b21575b50601260ff8416116110935761106a61106561105f612b1294612057565b80156110845761203b91612d80565b612b3b91935060203d6020116110cc576110bd8183610b0e565b915f612af4565b612b4d915042611e99565b600a5411155f612ab4565b92505050612b75915060a03d60a011611128576111168183610b0e565b929391505f612aa1565b600e5415612c9857905b81151580612c8b575b15612c8757600f54612ba3816112cb565b50926001840191612bbc60028454960195865490611e99565b908115612c755750612be5919080821115612c6e57905b612bde828754611e53565b8655611e99565b925490541115612bf5575b612b89565b600f54807fff2322ca5cc0de99e86dcca47216acc9431131b0653f58418006395c7d33fc3e5f80a2612c2e612c29826120c8565b600f55565b600f5490600e548210612c43575b5050612b89565b7f373b83833fa259ee8a1c96ccea2cb633a5b88dd292e40ff9f8c103d8ce10c5775f80a35f80612c3c565b5080612bd3565b9050612c29919450612bf092506120c8565b9050565b50600f54600e5411612b92565b50565b5f8181525f51602061305c5f395f51905f52602090815260408083206001600160a01b038616845290915290205460ff1615612a5d575f8181525f51602061305c5f395f51905f52602090815260408083206001600160a01b03861684529091529020805460ff1916905533916001600160a01b0316907ff6391f5c32d9c69d2a47ea670b442974b53935d1edc7fd64eb21e047a839171b5f80a4600190565b5f51602061301c5f395f51905f52546001600160a01b03163303612d5b57565b63118cdaa760e01b5f523360045260245ffd5b600954600d54810390811161070e5790565b90612d93670de0b6b3a764000083612f57565b9190928315612e0e5783821115612e0157670de0b6b3a7640000829109815f0382168092046002816003021880820260020302808202600203028082026002030280820260020302808202600203028091026002030293600183805f03040190848311900302920304170290565b6011600383150218612f6a565b509061203b92506120aa565b6040516323b872dd60e01b5f9081526001600160a01b039384166004529290931660245260449390935260209060648180865af160015f5114811615612e6b575b6040919091525f60605215612742565b600181151661277a573d15833b15151616612e5b565b610b4490612e8d612f7a565b611d2c612f7a565b612e9d612f7a565b612ea5612f7a565b60015f51602061309c5f395f51905f5255565b90813b15612f36575f51602061303c5f395f51905f5280546001600160a01b0319166001600160a01b0384169081179091557fbc7cd75a20ee27fd9adebab32041f755214dbc6bffa90cc0225b39da2e5c2d3b5f80a2805115612f1e57612c9891612fa5565b505034612f2757565b63b398979f60e01b5f5260045ffd5b50634c9c8ce360e01b5f9081526001600160a01b0391909116600452602490fd5b905f198183099102908180821091030391565b634e487b715f526020526024601cfd5b60ff5f5160206130bc5f395f51905f525460401c1615612f9657565b631afcd79f60e31b5f5260045ffd5b5f8061203b93602081519101845af4612fbc611ea6565b9190612fe15750805115612fd257602081519101fd5b63d6bda27560e01b5f5260045ffd5b81511580613012575b612ff2575090565b639996b31560e01b5f9081526001600160a01b0391909116600452602490fd5b50803b15612fea56fe9016d09d72d40fdae2fd8ceac6b6234c7706214fd39c1cd1e609a0528c199300360894a13ba1a3210667c828492db98dca3e2076cc3735a920a3ca505d382bbc02dd7bc7dec4dceedda775e58dd541e08a116c6c53815c0bd028192f7b626800cd5ed15c6e187e77e9aee88184c21f4f2182ab5827cb3b7e07fbedcd63f033009b779b17422d0df92223018b32b4d1fa46e071723d6817e2486d003becc55f00f0c57e16840df040f15088dc2f81fe391c3923bec73e23a9662efc9c229c6a00a2646970667358221220c5d904d3ba39527e1e325001ce18fbf17aa5f205c4dd69157b82b3c8a6ccffd164736f6c634300081c0033f0c57e16840df040f15088dc2f81fe391c3923bec73e23a9662efc9c229c6a00",
        "nonce": "0xb",
        "chainId": "0x61"
      },
      "additionalContracts": [],
      "isFixedGasLimit": false
    },
    {
      "hash": "0xb73d40e7741d5648f95df383f4c3c40724bb25951628087dd8a6738fe8730130",
      "transactionType": "CREATE",
      "contractName": "ERC1967Proxy",
      "contractAddress": "0x6bf701a94e052b3e33810c4805bed0a78cabbacb",
      "function": null,
      "arguments": [
        "0x8597D77653f3E9a99123e3da5c26b193066816c3",
        "0xdf5377fe000000000000000000000000d8299478cd7c5e2fe638fc6dbaf32349b00fb4910000000000000000000000000719c5e01262b7cd68dec84ae8fa58d9263a239d0000000000000000000000004ccc5033fea1d45fe6270e0c78534daf0c505ee60000000000000000000000009ff61118637b492acee674c4f38a121ae486aa4e000000000000000000000000cbb0262f993ab73de5aa295580bbff349c5e091d000000000000000000000000ba391f0b052eacdc3bf9a2ee1ebd091f8f9c382800000000000000000000000000000000000000000000000000000000000186a000000000000000000000000000000000000000000000000000000000691ac0c800000000000000000000000000000000000000000000152d02c7e14af6800000"
      ],
      "transaction": {
        "from": "0xba391f0b052eacdc3bf9a2ee1ebd091f8f9c3828",
        "gas": "0x86a11",
        "value": "0x0",
        "input": "0x608060405261029d8038038061001481610168565b92833981016040828203126101645781516001600160a01b03811692909190838303610164576020810151906001600160401b03821161016457019281601f8501121561016457835161006e610069826101a1565b610168565b9481865260208601936020838301011161016457815f926020809301865e86010152823b15610152577f360894a13ba1a3210667c828492db98dca3e2076cc3735a920a3ca505d382bbc80546001600160a01b031916821790557fbc7cd75a20ee27fd9adebab32041f755214dbc6bffa90cc0225b39da2e5c2d3b5f80a282511561013a575f8091610122945190845af43d15610132573d91610113610069846101a1565b9283523d5f602085013e6101bc565b505b6040516082908161021b8239f35b6060916101bc565b50505034156101245763b398979f60e01b5f5260045ffd5b634c9c8ce360e01b5f5260045260245ffd5b5f80fd5b6040519190601f01601f191682016001600160401b0381118382101761018d57604052565b634e487b7160e01b5f52604160045260245ffd5b6001600160401b03811161018d57601f01601f191660200190565b906101e057508051156101d157602081519101fd5b63d6bda27560e01b5f5260045ffd5b81511580610211575b6101f1575090565b639996b31560e01b5f9081526001600160a01b0391909116600452602490fd5b50803b156101e956fe60806040527f360894a13ba1a3210667c828492db98dca3e2076cc3735a920a3ca505d382bbc545f9081906001600160a01b0316368280378136915af43d5f803e156048573d5ff35b3d5ffdfea264697066735822122098a676692cc615860d71330e7b8adeb9933e286ffbb6c2d4496ca012bfc71a9264736f6c634300081c00330000000000000000000000008597d77653f3e9a99123e3da5c26b193066816c300000000000000000000000000000000000000000000000000000000000000400000000000000000000000000000000000000000000000000000000000000124df5377fe000000000000000000000000d8299478cd7c5e2fe638fc6dbaf32349b00fb4910000000000000000000000000719c5e01262b7cd68dec84ae8fa58d9263a239d0000000000000000000000004ccc5033fea1d45fe6270e0c78534daf0c505ee60000000000000000000000009ff61118637b492acee674c4f38a121ae486aa4e000000000000000000000000cbb0262f993ab73de5aa295580bbff349c5e091d000000000000000000000000ba391f0b052eacdc3bf9a2ee1ebd091f8f9c382800000000000000000000000000000000000000000000000000000000000186a000000000000000000000000000000000000000000000000000000000691ac0c800000000000000000000000000000000000000000000152d02c7e14af680000000000000000000000000000000000000000000000000000000000000",
        "nonce": "0xc",
        "chainId": "0x61"
      },
      "additionalContracts": [],
      "isFixedGasLimit": false
    },
    {
      "hash": "0xf1134db4233f0f1521b39ca6dffd8fd8c2d7511d95878c383e335aaeaa4a32ec",
      "transactionType": "CALL",
      "contractName": null,
      "contractAddress": "0xd8299478cd7c5e2fe638fc6dbaf32349b00fb491",
      "function": "grantRole(bytes32,address)",
      "arguments": [
        "0xd810f479110c9771ec744414e571d78468b4e92a20f345df2ffbdc5f927a182e",
        "0x6BF701A94E052B3e33810C4805BeD0A78caBBacb"
      ],
      "transaction": {
        "from": "0xba391f0b052eacdc3bf9a2ee1ebd091f8f9c3828",
        "to": "0xd8299478cd7c5e2fe638fc6dbaf32349b00fb491",
        "gas": "0x1417c",
        "value": "0x0",
        "input": "0x2f2ff15dd810f479110c9771ec744414e571d78468b4e92a20f345df2ffbdc5f927a182e0000000000000000000000006bf701a94e052b3e33810c4805bed0a78cabbacb",
        "nonce": "0xd",
        "chainId": "0x61"
      },
      "additionalContracts": [],
      "isFixedGasLimit": false
    },
    {
      "hash": "0xc095ea47466c1a8b264bb737854099d2821c3fad2e495f1fa21844484312f890",
      "transactionType": "CALL",
      "contractName": null,
      "contractAddress": "0xcbb0262f993ab73de5aa295580bbff349c5e091d",
      "function": "transferOwnership(address)",
      "arguments": [
        "0x6BF701A94E052B3e33810C4805BeD0A78caBBacb"
      ],
      "transaction": {
        "from": "0xba391f0b052eacdc3bf9a2ee1ebd091f8f9c3828",
        "to": "0xcbb0262f993ab73de5aa295580bbff349c5e091d",
        "gas": "0x9a0c",
        "value": "0x0",
        "input": "0xf2fde38b0000000000000000000000006bf701a94e052b3e33810c4805bed0a78cabbacb",
        "nonce": "0xe",
        "chainId": "0x61"
      },
      "additionalContracts": [],
      "isFixedGasLimit": false
    },
    {
      "hash": "0xe970d788ede2a987d829375d11cc319be17fd64d055e331fd0ce3ad8db62e26a",
      "transactionType": "CALL",
      "contractName": null,
      "contractAddress": "0xd8299478cd7c5e2fe638fc6dbaf32349b00fb491",
      "function": "setBurnFeeExempt(address,bool)",
      "arguments": [
        "0x6BF701A94E052B3e33810C4805BeD0A78caBBacb",
        "true"
      ],
      "transaction": {
        "from": "0xba391f0b052eacdc3bf9a2ee1ebd091f8f9c3828",
        "to": "0xd8299478cd7c5e2fe638fc6dbaf32349b00fb491",
        "gas": "0x12e83",
        "value": "0x0",
        "input": "0x6d910d5f0000000000000000000000006bf701a94e052b3e33810c4805bed0a78cabbacb0000000000000000000000000000000000000000000000000000000000000001",
        "nonce": "0xf",
        "chainId": "0x61"
      },
      "additionalContracts": [],
      "isFixedGasLimit": false
    },
    {
      "hash": "0x6aad4fc4b88ecb9049b2a0c2862355e0ccad28fe2ae49e7287f67d2804d2b9aa",
      "transactionType": "CALL",
      "contractName": null,
      "contractAddress": "0xd8299478cd7c5e2fe638fc6dbaf32349b00fb491",
      "function": "setBurnFeeExempt(address,bool)",
      "arguments": [
        "0xcBB0262F993AB73dE5Aa295580BbfF349C5e091d",
        "true"
      ],
      "transaction": {
        "from": "0xba391f0b052eacdc3bf9a2ee1ebd091f8f9c3828",
        "to": "0xd8299478cd7c5e2fe638fc6dbaf32349b00fb491",
        "gas": "0x12e83",
        "value": "0x0",
        "input": "0x6d910d5f000000000000000000000000cbb0262f993ab73de5aa295580bbff349c5e091d0000000000000000000000000000000000000000000000000000000000000001",
        "nonce": "0x10",
        "chainId": "0x61"
      },
      "additionalContracts": [],
      "isFixedGasLimit": false
    },
    {
      "hash": "0xf7727c420fd97fe4512b9566e181af510ea3a4b5e015de46ea741ad262977ada",
      "transactionType": "CALL",
      "contractName": null,
      "contractAddress": "0xd8299478cd7c5e2fe638fc6dbaf32349b00fb491",
      "function": "transfer(address,uint256)",
      "arguments": [
        "0x6BF701A94E052B3e33810C4805BeD0A78caBBacb",
        "20000000000000000000000000"
      ],
      "transaction": {
        "from": "0xba391f0b052eacdc3bf9a2ee1ebd091f8f9c3828",
        "to": "0xd8299478cd7c5e2fe638fc6dbaf32349b00fb491",
        "gas": "0x15554",
        "value": "0x0",
        "input": "0xa9059cbb0000000000000000000000006bf701a94e052b3e33810c4805bed0a78cabbacb000000000000000000000000000000000000000000108b2a2c28029094000000",
        "nonce": "0x11",
        "chainId": "0x61"
      },
      "additionalContracts": [],
      "isFixedGasLimit": false
    },
    {
      "hash": "0x9ec0d4c5ce4ce40a33c0e6e95abbf7dc96ec97acee1cb29786b09c363ba51209",
      "transactionType": "CALL",
      "contractName": "ERC1967Proxy",
      "contractAddress": "0x6bf701a94e052b3e33810c4805bed0a78cabbacb",
      "function": null,
      "arguments": null,
      "transaction": {
        "from": "0xba391f0b052eacdc3bf9a2ee1ebd091f8f9c3828",
        "to": "0x6bf701a94e052b3e33810c4805bed0a78cabbacb",
        "gas": "0x355188",
        "value": "0x0",
        "input": "0xe1afd7c6000000000000000000000000000000000000000000000000000000000000004000000000000000000000000000000000000000000000000000000000000006a0000000000000000000000000000000000000000000000000000000000000003200000000000000000000000000000000000000000000000000000000000186a00000000000000000000000000000000000000000000000000000000000018a880000000000000000000000000000000000000000000000000000000000018e7a0000000000000000000000000000000000000000000000000000000000019276000000000000000000000000000000000000000000000000000000000001967c0000000000000000000000000000000000000000000000000000000000019a8d0000000000000000000000000000000000000000000000000000000000019ea8000000000000000000000000000000000000000000000000000000000001a2ce000000000000000000000000000000000000000000000000000000000001a6fe000000000000000000000000000000000000000000000000000000000001ab39000000000000000000000000000000000000000000000000000000000001af7e000000000000000000000000000000000000000000000000000000000001b3cf000000000000000000000000000000000000000000000000000000000001b82b000000000000000000000000000000000000000000000000000000000001bc91000000000000000000000000000000000000000000000000000000000001c103000000000000000000000000000000000000000000000000000000000001c581000000000000000000000000000000000000000000000000000000000001ca0a000000000000000000000000000000000000000000000000000000000001ce9f000000000000000000000000000000000000000000000000000000000001d33f000000000000000000000000000000000000000000000000000000000001d7ec000000000000000000000000000000000000000000000000000000000001dca4000000000000000000000000000000000000000000000000000000000001e168000000000000000000000000000000000000000000000000000000000001e638000000000000000000000000000000000000000000000000000000000001eb15000000000000000000000000000000000000000000000000000000000001effe000000000000000000000000000000000000000000000000000000000001f4f4000000000000000000000000000000000000000000000000000000000001f9f6000000000000000000000000000000000000000000000000000000000001ff050000000000000000000000000000000000000000000000000000000000020421000000000000000000000000000000000000000000000000000000000002094a0000000000000000000000000000000000000000000000000000000000020e8000000000000000000000000000000000000000000000000000000000000213c300000000000000000000000000000000000000000000000000000000000219140000000000000000000000000000000000000000000000000000000000021e7300000000000000000000000000000000000000000000000000000000000223df000000000000000000000000000000000000000000000000000000000002295a0000000000000000000000000000000000000000000000000000000000022ee200000000000000000000000000000000000000000000000000000000000234790000000000000000000000000000000000000000000000000000000000023a1f0000000000000000000000000000000000000000000000000000000000023fd200000000000000000000000000000000000000000000000000000000000245950000000000000000000000000000000000000000000000000000000000024b66000000000000000000000000000000000000000000000000000000000002514600000000000000000000000000000000000000000000000000000000000257350000000000000000000000000000000000000000000000000000000000025d330000000000000000000000000000000000000000000000000000000000026341000000000000000000000000000000000000000000000000000000000002695e0000000000000000000000000000000000000000000000000000000000026f8a00000000000000000000000000000000000000000000000000000000000275c70000000000000000000000000000000000000000000000000000000000027c1300000000000000000000000000000000000000000000000000000000000000320000000000000000000000000000000000000000000054b40b1f852bda0000000000000000000000000000000000000000000000000054b40b1f852bda0000000000000000000000000000000000000000000000000054b40b1f852bda0000000000000000000000000000000000000000000000000054b40b1f852bda0000000000000000000000000000000000000000000000000054b40b1f852bda0000000000000000000000000000000000000000000000000054b40b1f852bda0000000000000000000000000000000000000000000000000054b40b1f852bda0000000000000000000000000000000000000000000000000054b40b1f852bda0000000000000000000000000000000000000000000000000054b40b1f852bda0000000000000000000000000000000000000000000000000054b40b1f852bda0000000000000000000000000000000000000000000000000054b40b1f852bda0000000000000000000000000000000000000000000000000054b40b1f852bda0000000000000000000000000000000000000000000000000054b40b1f852bda0000000000000000000000000000000000000000000000000054b40b1f852bda0000000000000000000000000000000000000000000000000054b40b1f852bda0000000000000000000000000000000000000000000000000054b40b1f852bda0000000000000000000000000000000000000000000000000054b40b1f852bda0000000000000000000000000000000000000000000000000054b40b1f852bda0000000000000000000000000000000000000000000000000054b40b1f852bda0000000000000000000000000000000000000000000000000054b40b1f852bda0000000000000000000000000000000000000000000000000054b40b1f852bda0000000000000000000000000000000000000000000000000054b40b1f852bda0000000000000000000000000000000000000000000000000054b40b1f852bda0000000000000000000000000000000000000000000000000054b40b1f852bda0000000000000000000000000000000000000000000000000054b40b1f852bda0000000000000000000000000000000000000000000000000054b40b1f852bda0000000000000000000000000000000000000000000000000054b40b1f852bda0000000000000000000000000000000000000000000000000054b40b1f852bda0000000000000000000000000000000000000000000000000054b40b1f852bda0000000000000000000000000000000000000000000000000054b40b1f852bda0000000000000000000000000000000000000000000000000054b40b1f852bda0000000000000000000000000000000000000000000000000054b40b1f852bda0000000000000000000000000000000000000000000000000054b40b1f852bda0000000000000000000000000000000000000000000000000054b40b1f852bda0000000000000000000000000000000000000000000000000054b40b1f852bda0000000000000000000000000000000000000000000000000054b40b1f852bda0000000000000000000000000000000000000000000000000054b40b1f852bda0000000000000000000000000000000000000000000000000054b40b1f852bda0000000000000000000000000000000000000000000000000054b40b1f852bda0000000000000000000000000000000000000000000000000054b40b1f852bda0000000000000000000000000000000000000000000000000054b40b1f852bda0000000000000000000000000000000000000000000000000054b40b1f852bda0000000000000000000000000000000000000000000000000054b40b1f852bda0000000000000000000000000000000000000000000000000054b40b1f852bda0000000000000000000000000000000000000000000000000054b40b1f852bda0000000000000000000000000000000000000000000000000054b40b1f852bda0000000000000000000000000000000000000000000000000054b40b1f852bda0000000000000000000000000000000000000000000000000054b40b1f852bda0000000000000000000000000000000000000000000000000054b40b1f852bda0000000000000000000000000000000000000000000000000054b40b1f852bda000000",
        "nonce": "0x12",
        "chainId": "0x61"
      },
      "additionalContracts": [],
      "isFixedGasLimit": false
    }
  ],
  "receipts": [
    {
      "status": "0x1",
      "cumulativeGasUsed": "0x76537",
      "logs": [],
      "logsBloom": "0x00000000000000000000000000000000000000000000000000000000000000000000000000000000000000000000000000000000000000000000000000000000000000000000000000000000000000000000000000000000000000000000000000000000000000000000000000000000000000000000000000000000000000000000000000000000000000000000000000000000000000000000000000000000000000000000000000000000000000000000000000000000000000000000000000000000000000000000000000000000000000000000000000000000000000000000000000000000000000000000000000000000000000000000000000000000",
      "type": "0x0",
      "transactionHash": "0x2174c4e5e36ba7104fb6f14625d6f1f9b8891d8e0a73f32ad0d61bd1e3d1364a",
      "transactionIndex": "0x0",
      "blockHash": "0xbfb3f62be51d0e209d838daf74a5d2a825a2e1a0ddbdb1cacc4c0156ee27428c",
      "blockNumber": "0x3ebaf16",
      "gasUsed": "0x76537",
      "effectiveGasPrice": "0x3b9aca00",
      "from": "0xba391f0b052eacdc3bf9a2ee1ebd091f8f9c3828",
      "to": null,
      "contractAddress": "0x0719c5e01262b7cd68dec84ae8fa58d9263a239d"
    },
    {
      "status": "0x1",
      "cumulativeGasUsed": "0x86846",
      "logs": [],
      "logsBloom": "0x00000000000000000000000000000000000000000000000000000000000000000000000000000000000000000000000000000000000000000000000000000000000000000000000000000000000000000000000000000000000000000000000000000000000000000000000000000000000000000000000000000000000000000000000000000000000000000000000000000000000000000000000000000000000000000000000000000000000000000000000000000000000000000000000000000000000000000000000000000000000000000000000000000000000000000000000000000000000000000000000000000000000000000000000000000000",
      "type": "0x0",
      "transactionHash": "0x6dbc9615610d05492013d43d5a684b34ced6b8914c7ea4bdcffe70cf3c81c77f",
      "transactionIndex": "0x1",
      "blockHash": "0xbfb3f62be51d0e209d838daf74a5d2a825a2e1a0ddbdb1cacc4c0156ee27428c",
      "blockNumber": "0x3ebaf16",
      "gasUsed": "0x1030f",
      "effectiveGasPrice": "0x3b9aca00",
      "from": "0xba391f0b052eacdc3bf9a2ee1ebd091f8f9c3828",
      "to": "0x0719c5e01262b7cd68dec84ae8fa58d9263a239d",
      "contractAddress": null
    },
    {
      "status": "0x1",
      "cumulativeGasUsed": "0xfcd7d",
      "logs": [],
      "logsBloom": "0x00000000000000000000000000000000000000000000000000000000000000000000000000000000000000000000000000000000000000000000000000000000000000000000000000000000000000000000000000000000000000000000000000000000000000000000000000000000000000000000000000000000000000000000000000000000000000000000000000000000000000000000000000000000000000000000000000000000000000000000000000000000000000000000000000000000000000000000000000000000000000000000000000000000000000000000000000000000000000000000000000000000000000000000000000000000",
      "type": "0x0",
      "transactionHash": "0xb66f98a0007c4554ac697e9b966e34a685533995230f187ce5427895ab960f09",
      "transactionIndex": "0x2",
      "blockHash": "0xbfb3f62be51d0e209d838daf74a5d2a825a2e1a0ddbdb1cacc4c0156ee27428c",
      "blockNumber": "0x3ebaf16",
      "gasUsed": "0x76537",
      "effectiveGasPrice": "0x3b9aca00",
      "from": "0xba391f0b052eacdc3bf9a2ee1ebd091f8f9c3828",
      "to": null,
      "contractAddress": "0x4ccc5033fea1d45fe6270e0c78534daf0c505ee6"
    },
    {
      "status": "0x1",
      "cumulativeGasUsed": "0x10d08c",
      "logs": [],
      "logsBloom": "0x00000000000000000000000000000000000000000000000000000000000000000000000000000000000000000000000000000000000000000000000000000000000000000000000000000000000000000000000000000000000000000000000000000000000000000000000000000000000000000000000000000000000000000000000000000000000000000000000000000000000000000000000000000000000000000000000000000000000000000000000000000000000000000000000000000000000000000000000000000000000000000000000000000000000000000000000000000000000000000000000000000000000000000000000000000000",
      "type": "0x0",
      "transactionHash": "0xb781140b3174f3c862564a9ea89a4736037a6fdbf0319e2f63b81519b01c0e0a",
      "transactionIndex": "0x3",
      "blockHash": "0xbfb3f62be51d0e209d838daf74a5d2a825a2e1a0ddbdb1cacc4c0156ee27428c",
      "blockNumber": "0x3ebaf16",
      "gasUsed": "0x1030f",
      "effectiveGasPrice": "0x3b9aca00",
      "from": "0xba391f0b052eacdc3bf9a2ee1ebd091f8f9c3828",
      "to": "0x4ccc5033fea1d45fe6270e0c78534daf0c505ee6",
      "contractAddress": null
    },
    {
      "status": "0x1",
      "cumulativeGasUsed": "0x13a64d",
      "logs": [],
      "logsBloom": "0x00000000000000000000000000000000000000000000000000000000000000000000000000000000000000000000000000000000000000000000000000000000000000000000000000000000000000000000000000000000000000000000000000000000000000000000000000000000000000000000000000000000000000000000000000000000000000000000000000000000000000000000000000000000000000000000000000000000000000000000000000000000000000000000000000000000000000000000000000000000000000000000000000000000000000000000000000000000000000000000000000000000000000000000000000000000",
      "type": "0x0",
      "transactionHash": "0x159f15e42e50db79fd66c071715daec026780c3b3683b70fd0f82a63f7c0bba3",
      "transactionIndex": "0x4",
      "blockHash": "0xbfb3f62be51d0e209d838daf74a5d2a825a2e1a0ddbdb1cacc4c0156ee27428c",
      "blockNumber": "0x3ebaf16",
      "gasUsed": "0x2d5c1",
      "effectiveGasPrice": "0x3b9aca00",
      "from": "0xba391f0b052eacdc3bf9a2ee1ebd091f8f9c3828",
      "to": null,
      "contractAddress": "0x9ff61118637b492acee674c4f38a121ae486aa4e"
    },
    {
      "status": "0x1",
      "cumulativeGasUsed": "0x2afcb6",
      "logs": [
        {
          "address": "0x8597d77653f3e9a99123e3da5c26b193066816c3",
          "topics": [
            "0xc7f505b2f371ae2175ee4913f4499e1f2633a7b5936321eed1cdaeb6115181d2"
          ],
          "data": "0x000000000000000000000000000000000000000000000000ffffffffffffffff",
          "blockHash": "0xeccddc17615565a2e3c110fe39423156cdaf410cb5c639ef8f7dd633f9e5c0e1",
          "blockNumber": "0x3ebaf17",
          "transactionHash": "0x15635f5703eff15eb2453b00c30ee1c8e32a33b25c84bceecd3d8922a8beaa1b",
          "transactionIndex": "0x0",
          "logIndex": "0x0",
          "removed": false
        }
      ],
      "logsBloom": "0x00000000000000000000000000000000000000000000000000000000000000000000000000000000000000000000000000000000000000000000000000000000000000000000000000000000000000000000000000000000000000000000000000000000000000000000000000000000000000000000000000000000400000000000000000000000000800000000080000000000000080000000000000000000000000000000000000000000000000000000000000000001000000000000000000000000000000000000000000000000000000000004000000000000000000000000000000000000000000000000000000000000000000000000000000000000",
      "type": "0x0",
      "transactionHash": "0x15635f5703eff15eb2453b00c30ee1c8e32a33b25c84bceecd3d8922a8beaa1b",
      "transactionIndex": "0x0",
      "blockHash": "0xeccddc17615565a2e3c110fe39423156cdaf410cb5c639ef8f7dd633f9e5c0e1",
      "blockNumber": "0x3ebaf17",
      "gasUsed": "0x2afcb6",
      "effectiveGasPrice": "0x3b9aca00",
      "from": "0xba391f0b052eacdc3bf9a2ee1ebd091f8f9c3828",
      "to": null,
      "contractAddress": "0x8597d77653f3e9a99123e3da5c26b193066816c3"
    },
    {
      "status": "0x1",
      "cumulativeGasUsed": "0x3175b0",
      "logs": [
        {
          "address": "0x6bf701a94e052b3e33810c4805bed0a78cabbacb",
          "topics": [
            "0xbc7cd75a20ee27fd9adebab32041f755214dbc6bffa90cc0225b39da2e5c2d3b",
            "0x0000000000000000000000008597d77653f3e9a99123e3da5c26b193066816c3"
          ],
          "data": "0x",
          "blockHash": "0xeccddc17615565a2e3c110fe39423156cdaf410cb5c639ef8f7dd633f9e5c0e1",
          "blockNumber": "0x3ebaf17",
          "transactionHash": "0xb73d40e7741d5648f95df383f4c3c40724bb25951628087dd8a6738fe8730130",
          "transactionIndex": "0x1",
          "logIndex": "0x1",
          "removed": false
        },
        {
          "address": "0x6bf701a94e052b3e33810c4805bed0a78cabbacb",
          "topics": [
            "0x8be0079c531659141344cd1fd0a4f28419497f9722a3daafe3b4186f6b6457e0",
            "0x0000000000000000000000000000000000000000000000000000000000000000",
            "0x000000000000000000000000ba391f0b052eacdc3bf9a2ee1ebd091f8f9c3828"
          ],
          "data": "0x",
          "blockHash": "0xeccddc17615565a2e3c110fe39423156cdaf410cb5c639ef8f7dd633f9e5c0e1",
          "blockNumber": "0x3ebaf17",
          "transactionHash": "0xb73d40e7741d5648f95df383f4c3c40724bb25951628087dd8a6738fe8730130",
          "transactionIndex": "0x1",
          "logIndex": "0x2",
          "removed": false
        },
        {
          "address": "0x6bf701a94e052b3e33810c4805bed0a78cabbacb",
          "topics": [
            "0x2f8788117e7eff1d82e926ec794901d17c78024a50270940304540a733656f0d",
            "0x0000000000000000000000000000000000000000000000000000000000000000",
            "0x000000000000000000000000ba391f0b052eacdc3bf9a2ee1ebd091f8f9c3828",
            "0x000000000000000000000000ba391f0b052eacdc3bf9a2ee1ebd091f8f9c3828"
          ],
          "data": "0x",
          "blockHash": "0xeccddc17615565a2e3c110fe39423156cdaf410cb5c639ef8f7dd633f9e5c0e1",
          "blockNumber": "0x3ebaf17",
          "transactionHash": "0xb73d40e7741d5648f95df383f4c3c40724bb25951628087dd8a6738fe8730130",
          "transactionIndex": "0x1",
          "logIndex": "0x3",
          "removed": false
        },
        {
          "address": "0x6bf701a94e052b3e33810c4805bed0a78cabbacb",
          "topics": [
            "0x2f8788117e7eff1d82e926ec794901d17c78024a50270940304540a733656f0d",
            "0x189ab7a9244df0848122154315af71fe140f3db0fe014031783b0946b8c9d2e3",
            "0x000000000000000000000000ba391f0b052eacdc3bf9a2ee1ebd091f8f9c3828",
            "0x000000000000000000000000ba391f0b052eacdc3bf9a2ee1ebd091f8f9c3828"
          ],
          "data": "0x",
          "blockHash": "0xeccddc17615565a2e3c110fe39423156cdaf410cb5c639ef8f7dd633f9e5c0e1",
          "blockNumber": "0x3ebaf17",
          "transactionHash": "0xb73d40e7741d5648f95df383f4c3c40724bb25951628087dd8a6738fe8730130",
          "transactionIndex": "0x1",
          "logIndex": "0x4",
          "removed": false
        },
        {
          "address": "0x6bf701a94e052b3e33810c4805bed0a78cabbacb",
          "topics": [
            "0xc7f505b2f371ae2175ee4913f4499e1f2633a7b5936321eed1cdaeb6115181d2"
          ],
          "data": "0x0000000000000000000000000000000000000000000000000000000000000001",
          "blockHash": "0xeccddc17615565a2e3c110fe39423156cdaf410cb5c639ef8f7dd633f9e5c0e1",
          "blockNumber": "0x3ebaf17",
          "transactionHash": "0xb73d40e7741d5648f95df383f4c3c40724bb25951628087dd8a6738fe8730130",
          "transactionIndex": "0x1",
          "logIndex": "0x5",
          "removed": false
        }
      ],
      "logsBloom": "0x00000004000000000000000000000000400000000000000000800000000000000000000000000000004000008000000000000000000000000000000000000000000000000000000000000000000002000001000000000020000000000000000000000000020000000000000080000800000000000000000000010080000000400000000000000000000800000000000000000000000080000000000010000000000000000000000000000000000008000000000000000000001000000000000000000020000000000000000000000000000000000004000100000000000020000080000000000800000000820000000000000000000000000000000000000000",
      "type": "0x0",
      "transactionHash": "0xb73d40e7741d5648f95df383f4c3c40724bb25951628087dd8a6738fe8730130",
      "transactionIndex": "0x1",
      "blockHash": "0xeccddc17615565a2e3c110fe39423156cdaf410cb5c639ef8f7dd633f9e5c0e1",
      "blockNumber": "0x3ebaf17",
      "gasUsed": "0x678fa",
      "effectiveGasPrice": "0x3b9aca00",
      "from": "0xba391f0b052eacdc3bf9a2ee1ebd091f8f9c3828",
      "to": null,
      "contractAddress": "0x6bf701a94e052b3e33810c4805bed0a78cabbacb"
    },
    {
      "status": "0x1",
      "cumulativeGasUsed": "0x325182",
      "logs": [
        {
          "address": "0xd8299478cd7c5e2fe638fc6dbaf32349b00fb491",
          "topics": [
            "0x2f8788117e7eff1d82e926ec794901d17c78024a50270940304540a733656f0d",
            "0xd810f479110c9771ec744414e571d78468b4e92a20f345df2ffbdc5f927a182e",
            "0x0000000000000000000000006bf701a94e052b3e33810c4805bed0a78cabbacb",
            "0x000000000000000000000000ba391f0b052eacdc3bf9a2ee1ebd091f8f9c3828"
          ],
          "data": "0x",
          "blockHash": "0xeccddc17615565a2e3c110fe39423156cdaf410cb5c639ef8f7dd633f9e5c0e1",
          "blockNumber": "0x3ebaf17",
          "transactionHash": "0xf1134db4233f0f1521b39ca6dffd8fd8c2d7511d95878c383e335aaeaa4a32ec",
          "transactionIndex": "0x2",
          "logIndex": "0x6",
          "removed": false
        }
      ],
      "logsBloom": "0x0000000400000000000000000000000000000000000000000000000000000000000000000000000000000000000000400000000000000000000000000000000000000000002000000000000000000000000000000000002000000000000000000040000000000000000000408000000000000000000000000000008000000000000000000000000c000000000000000000000000000000000000000000000000000000000000000000000000000000000000000000000000001000000000000000002000000000000000000000000000000000040000000100000000000000000000000000000000000000000000000000000000000000000020000000000000",
      "type": "0x0",
      "transactionHash": "0xf1134db4233f0f1521b39ca6dffd8fd8c2d7511d95878c383e335aaeaa4a32ec",
      "transactionIndex": "0x2",
      "blockHash": "0xeccddc17615565a2e3c110fe39423156cdaf410cb5c639ef8f7dd633f9e5c0e1",
      "blockNumber": "0x3ebaf17",
      "gasUsed": "0xdbd2",
      "effectiveGasPrice": "0x3b9aca00",
      "from": "0xba391f0b052eacdc3bf9a2ee1ebd091f8f9c3828",
      "to": "0xd8299478cd7c5e2fe638fc6dbaf32349b00fb491",
      "contractAddress": null
    },
    {
      "status": "0x1",
      "cumulativeGasUsed": "0x32c10a",
      "logs": [
        {
          "address": "0xcbb0262f993ab73de5aa295580bbff349c5e091d",
          "topics": [
            "0x8be0079c531659141344cd1fd0a4f28419497f9722a3daafe3b4186f6b6457e0",
            "0x000000000000000000000000ba391f0b052eacdc3bf9a2ee1ebd091f8f9c3828",
            "0x0000000000000000000000006bf701a94e052b3e33810c4805bed0a78cabbacb"
          ],
          "data": "0x",
          "blockHash": "0xeccddc17615565a2e3c110fe39423156cdaf410cb5c639ef8f7dd633f9e5c0e1",
          "blockNumber": "0x3ebaf17",
          "transactionHash": "0xc095ea47466c1a8b264bb737854099d2821c3fad2e495f1fa21844484312f890",
          "transactionIndex": "0x3",
          "logIndex": "0x7",
          "removed": false
        }
      ],
      "logsBloom": "0x00000000000000000000000000000000000000000000000000800000000000000000000000000000000000000000000000000000000000000000000000000000000000000000000000001000000000000001000000000020000000000000000000000000000000000000000080000000000000000000000000000080000000400000000000000008000000000000000000000000000000000000000000000000000020000000000000000000000000000000000000000000000000000000000000082000000000000000000000000000000000040000000000000000000000000000000000000000000000000000000000000000000000000000000000000000",
      "type": "0x0",
      "transactionHash": "0xc095ea47466c1a8b264bb737854099d2821c3fad2e495f1fa21844484312f890",
      "transactionIndex": "0x3",
      "blockHash": "0xeccddc17615565a2e3c110fe39423156cdaf410cb5c639ef8f7dd633f9e5c0e1",
      "blockNumber": "0x3ebaf17",
      "gasUsed": "0x6f88",
      "effectiveGasPrice": "0x3b9aca00",
      "from": "0xba391f0b052eacdc3bf9a2ee1ebd091f8f9c3828",
      "to": "0xcbb0262f993ab73de5aa295580bbff349c5e091d",
      "contractAddress": null
    },
    {
      "status": "0x1",
      "cumulativeGasUsed": "0x338fe3",
      "logs": [
        {
          "address": "0xd8299478cd7c5e2fe638fc6dbaf32349b00fb491",
          "topics": [
            "0x8cb68fb7f7f7e4e8c19aa01d82dc6e9c378be66803ac24a5d28c43822086eb21",
            "0x0000000000000000000000006bf701a94e052b3e33810c4805bed0a78cabbacb"
          ],
          "data": "0x0000000000000000000000000000000000000000000000000000000000000001",
          "blockHash": "0xeccddc17615565a2e3c110fe39423156cdaf410cb5c639ef8f7dd633f9e5c0e1",
          "blockNumber": "0x3ebaf17",
          "transactionHash": "0xe970d788ede2a987d829375d11cc319be17fd64d055e331fd0ce3ad8db62e26a",
          "transactionIndex": "0x4",
          "logIndex": "0x8",
          "removed": false
        }
      ],
      "logsBloom": "0x00000000000000000000000000000000000000000000000000000000000000000000000000000000000000000000004000000000000000000000000000000000000000000020000000000000000000000000000000000000000000000000000000400000000000000000000000000000000000000000000000000000000000000000000000000008000000000000000000000000000000000000000000000000001000000000000000000000000000000000000000000000000000000000000000002000000000000000000000000000000000040000000000000000000000000000000000000000000000000001000000000000000100000000000000000000",
      "type": "0x0",
      "transactionHash": "0xe970d788ede2a987d829375d11cc319be17fd64d055e331fd0ce3ad8db62e26a",
      "transactionIndex": "0x4",
      "blockHash": "0xeccddc17615565a2e3c110fe39423156cdaf410cb5c639ef8f7dd633f9e5c0e1",
      "blockNumber": "0x3ebaf17",
      "gasUsed": "0xced9",
      "effectiveGasPrice": "0x3b9aca00",
      "from": "0xba391f0b052eacdc3bf9a2ee1ebd091f8f9c3828",
      "to": "0xd8299478cd7c5e2fe638fc6dbaf32349b00fb491",
      "contractAddress": null
    },
    {
      "status": "0x1",
      "cumulativeGasUsed": "0xced9",
      "logs": [
        {
          "address": "0xd8299478cd7c5e2fe638fc6dbaf32349b00fb491",
          "topics": [
            "0x8cb68fb7f7f7e4e8c19aa01d82dc6e9c378be66803ac24a5d28c43822086eb21",
            "0x000000000000000000000000cbb0262f993ab73de5aa295580bbff349c5e091d"
          ],
          "data": "0x0000000000000000000000000000000000000000000000000000000000000001",
          "blockHash": "0x49c87320222dca12257f5a239cd6f495cbf1f318af1b26ed5d679c91a4543988",
          "blockNumber": "0x3ebaf18",
          "transactionHash": "0x6aad4fc4b88ecb9049b2a0c2862355e0ccad28fe2ae49e7287f67d2804d2b9aa",
          "transactionIndex": "0x0",
          "logIndex": "0x0",
          "removed": false
        }
      ],
      "logsBloom": "0x00000000000000000000000000000008000000000000000000000000000000000000000000000000000000000000004000000000000000000000000000000000000000000020000000000000000000000000000000000000000000000000000000400000000000000000000000000000000000000000000000000000000000000000000000000000000000000000000000000000000000000000000000000000001000000000000000000000000000000000000000000000000000000000000000000000000000000000000000000000000000000000000000000000000040000000000000000000000000000001000000000000000140000000000000000000",
      "type": "0x0",
      "transactionHash": "0x6aad4fc4b88ecb9049b2a0c2862355e0ccad28fe2ae49e7287f67d2804d2b9aa",
      "transactionIndex": "0x0",
      "blockHash": "0x49c87320222dca12257f5a239cd6f495cbf1f318af1b26ed5d679c91a4543988",
      "blockNumber": "0x3ebaf18",
      "gasUsed": "0xced9",
      "effectiveGasPrice": "0x3b9aca00",
      "from": "0xba391f0b052eacdc3bf9a2ee1ebd091f8f9c3828",
      "to": "0xd8299478cd7c5e2fe638fc6dbaf32349b00fb491",
      "contractAddress": null
    },
    {
      "status": "0x1",
      "cumulativeGasUsed": "0x1c5f8",
      "logs": [
        {
          "address": "0xd8299478cd7c5e2fe638fc6dbaf32349b00fb491",
          "topics": [
            "0xddf252ad1be2c89b69c2b068fc378daa952ba7f163c4a11628f55a4df523b3ef",
            "0x000000000000000000000000ba391f0b052eacdc3bf9a2ee1ebd091f8f9c3828",
            "0x0000000000000000000000006bf701a94e052b3e33810c4805bed0a78cabbacb"
          ],
          "data": "0x000000000000000000000000000000000000000000108b2a2c28029094000000",
          "blockHash": "0x49c87320222dca12257f5a239cd6f495cbf1f318af1b26ed5d679c91a4543988",
          "blockNumber": "0x3ebaf18",
          "transactionHash": "0xf7727c420fd97fe4512b9566e181af510ea3a4b5e015de46ea741ad262977ada",
          "transactionIndex": "0x1",
          "logIndex": "0x1",
          "removed": false
        }
      ],
      "logsBloom": "0x00000000000000000000000000000000000000000000000000000000000000000000000000000000000000000000004000000000000000000000000000000000000000000020000000000008000000000000000000000020000000000000000000400000000000000000000080000000000000000000000000000090000000000000000000000008000000000000000000000000000000000000000000000000000000000000000000000000000000000000000000000000000000000000000000002002000000000000000000000000000000040000000000000000000000000000000000000000000000000000000000000000000000000000000000000000",
      "type": "0x0",
      "transactionHash": "0xf7727c420fd97fe4512b9566e181af510ea3a4b5e015de46ea741ad262977ada",
      "transactionIndex": "0x1",
      "blockHash": "0x49c87320222dca12257f5a239cd6f495cbf1f318af1b26ed5d679c91a4543988",
      "blockNumber": "0x3ebaf18",
      "gasUsed": "0xf71f",
      "effectiveGasPrice": "0x3b9aca00",
      "from": "0xba391f0b052eacdc3bf9a2ee1ebd091f8f9c3828",
      "to": "0xd8299478cd7c5e2fe638fc6dbaf32349b00fb491",
      "contractAddress": null
    },
    {
      "status": "0x1",
      "cumulativeGasUsed": "0x285ffc",
      "logs": [
        {
          "address": "0x6bf701a94e052b3e33810c4805bed0a78cabbacb",
          "topics": [
            "0x5a8da334e5dcda56741c841c76367039ac3d16ad85daad47f8b9b017c8514c68",
            "0x0000000000000000000000000000000000000000000000000000000000000000"
          ],
          "data": "0x00000000000000000000000000000000000000000000000000000000000186a00000000000000000000000000000000000000000000054b40b1f852bda000000",
          "blockHash": "0x49c87320222dca12257f5a239cd6f495cbf1f318af1b26ed5d679c91a4543988",
          "blockNumber": "0x3ebaf18",
          "transactionHash": "0x9ec0d4c5ce4ce40a33c0e6e95abbf7dc96ec97acee1cb29786b09c363ba51209",
          "transactionIndex": "0x2",
          "logIndex": "0x2",
          "removed": false
        },
        {
          "address": "0x6bf701a94e052b3e33810c4805bed0a78cabbacb",
          "topics": [
            "0x5a8da334e5dcda56741c841c76367039ac3d16ad85daad47f8b9b017c8514c68",
            "0x0000000000000000000000000000000000000000000000000000000000000001"
          ],
          "data": "0x0000000000000000000000000000000000000000000000000000000000018a880000000000000000000000000000000000000000000054b40b1f852bda000000",
          "blockHash": "0x49c87320222dca12257f5a239cd6f495cbf1f318af1b26ed5d679c91a4543988",
          "blockNumber": "0x3ebaf18",
          "transactionHash": "0x9ec0d4c5ce4ce40a33c0e6e95abbf7dc96ec97acee1cb29786b09c363ba51209",
          "transactionIndex": "0x2",
          "logIndex": "0x3",
          "removed": false
        },
        {
          "address": "0x6bf701a94e052b3e33810c4805bed0a78cabbacb",
          "topics": [
            "0x5a8da334e5dcda56741c841c76367039ac3d16ad85daad47f8b9b017c8514c68",
            "0x0000000000000000000000000000000000000000000000000000000000000002"
          ],
          "data": "0x0000000000000000000000000000000000000000000000000000000000018e7a0000000000000000000000000000000000000000000054b40b1f852bda000000",
          "blockHash": "0x49c87320222dca12257f5a239cd6f495cbf1f318af1b26ed5d679c91a4543988",
          "blockNumber": "0x3ebaf18",
          "transactionHash": "0x9ec0d4c5ce4ce40a33c0e6e95abbf7dc96ec97acee1cb29786b09c363ba51209",
          "transactionIndex": "0x2",
          "logIndex": "0x4",
          "removed": false
        },
        {
          "address": "0x6bf701a94e052b3e33810c4805bed0a78cabbacb",
          "topics": [
            "0x5a8da334e5dcda56741c841c76367039ac3d16ad85daad47f8b9b017c8514c68",
            "0x0000000000000000000000000000000000000000000000000000000000000003"
          ],
          "data": "0x00000000000000000000000000000000000000000000000000000000000192760000000000000000000000000000000000000000000054b40b1f852bda000000",
          "blockHash": "0x49c87320222dca12257f5a239cd6f495cbf1f318af1b26ed5d679c91a4543988",
          "blockNumber": "0x3ebaf18",
          "transactionHash": "0x9ec0d4c5ce4ce40a33c0e6e95abbf7dc96ec97acee1cb29786b09c363ba51209",
          "transactionIndex": "0x2",
          "logIndex": "0x5",
          "removed": false
        },
        {
          "address": "0x6bf701a94e052b3e33810c4805bed0a78cabbacb",
          "topics": [
            "0x5a8da334e5dcda56741c841c76367039ac3d16ad85daad47f8b9b017c8514c68",
            "0x0000000000000000000000000000000000000000000000000000000000000004"
          ],
          "data": "0x000000000000000000000000000000000000000000000000000000000001967c0000000000000000000000000000000000000000000054b40b1f852bda000000",
          "blockHash": "0x49c87320222dca12257f5a239cd6f495cbf1f318af1b26ed5d679c91a4543988",
          "blockNumber": "0x3ebaf18",
          "transactionHash": "0x9ec0d4c5ce4ce40a33c0e6e95abbf7dc96ec97acee1cb29786b09c363ba51209",
          "transactionIndex": "0x2",
          "logIndex": "0x6",
          "removed": false
        },
        {
          "address": "0x6bf701a94e052b3e33810c4805bed0a78cabbacb",
          "topics": [
            "0x5a8da334e5dcda56741c841c76367039ac3d16ad85daad47f8b9b017c8514c68",
            "0x0000000000000000000000000000000000000000000000000000000000000005"
          ],
          "data": "0x0000000000000000000000000000000000000000000000000000000000019a8d0000000000000000000000000000000000000000000054b40b1f852bda000000",
          "blockHash": "0x49c87320222dca12257f5a239cd6f495cbf1f318af1b26ed5d679c91a4543988",
          "blockNumber": "0x3ebaf18",
          "transactionHash": "0x9ec0d4c5ce4ce40a33c0e6e95abbf7dc96ec97acee1cb29786b09c363ba51209",
          "transactionIndex": "0x2",
          "logIndex": "0x7",
          "removed": false
        },
        {
          "address": "0x6bf701a94e052b3e33810c4805bed0a78cabbacb",
          "topics": [
            "0x5a8da334e5dcda56741c841c76367039ac3d16ad85daad47f8b9b017c8514c68",
            "0x0000000000000000000000000000000000000000000000000000000000000006"
          ],
          "data": "0x0000000000000000000000000000000000000000000000000000000000019ea80000000000000000000000000000000000000000000054b40b1f852bda000000",
          "blockHash": "0x49c87320222dca12257f5a239cd6f495cbf1f318af1b26ed5d679c91a4543988",
          "blockNumber": "0x3ebaf18",
          "transactionHash": "0x9ec0d4c5ce4ce40a33c0e6e95abbf7dc96ec97acee1cb29786b09c363ba51209",
          "transactionIndex": "0x2",
          "logIndex": "0x8",
          "removed": false
        },
        {
          "address": "0x6bf701a94e052b3e33810c4805bed0a78cabbacb",
          "topics": [
            "0x5a8da334e5dcda56741c841c76367039ac3d16ad85daad47f8b9b017c8514c68",
            "0x0000000000000000000000000000000000000000000000000000000000000007"
          ],
          "data": "0x000000000000000000000000000000000000000000000000000000000001a2ce0000000000000000000000000000000000000000000054b40b1f852bda000000",
          "blockHash": "0x49c87320222dca12257f5a239cd6f495cbf1f318af1b26ed5d679c91a4543988",
          "blockNumber": "0x3ebaf18",
          "transactionHash": "0x9ec0d4c5ce4ce40a33c0e6e95abbf7dc96ec97acee1cb29786b09c363ba51209",
          "transactionIndex": "0x2",
          "logIndex": "0x9",
          "removed": false
        },
        {
          "address": "0x6bf701a94e052b3e33810c4805bed0a78cabbacb",
          "topics": [
            "0x5a8da334e5dcda56741c841c76367039ac3d16ad85daad47f8b9b017c8514c68",
            "0x0000000000000000000000000000000000000000000000000000000000000008"
          ],
          "data": "0x000000000000000000000000000000000000000000000000000000000001a6fe0000000000000000000000000000000000000000000054b40b1f852bda000000",
          "blockHash": "0x49c87320222dca12257f5a239cd6f495cbf1f318af1b26ed5d679c91a4543988",
          "blockNumber": "0x3ebaf18",
          "transactionHash": "0x9ec0d4c5ce4ce40a33c0e6e95abbf7dc96ec97acee1cb29786b09c363ba51209",
          "transactionIndex": "0x2",
          "logIndex": "0xa",
          "removed": false
        },
        {
          "address": "0x6bf701a94e052b3e33810c4805bed0a78cabbacb",
          "topics": [
            "0x5a8da334e5dcda56741c841c76367039ac3d16ad85daad47f8b9b017c8514c68",
            "0x0000000000000000000000000000000000000000000000000000000000000009"
          ],
          "data": "0x000000000000000000000000000000000000000000000000000000000001ab390000000000000000000000000000000000000000000054b40b1f852bda000000",
          "blockHash": "0x49c87320222dca12257f5a239cd6f495cbf1f318af1b26ed5d679c91a4543988",
          "blockNumber": "0x3ebaf18",
          "transactionHash": "0x9ec0d4c5ce4ce40a33c0e6e95abbf7dc96ec97acee1cb29786b09c363ba51209",
          "transactionIndex": "0x2",
          "logIndex": "0xb",
          "removed": false
        },
        {
          "address": "0x6bf701a94e052b3e33810c4805bed0a78cabbacb",
          "topics": [
            "0x5a8da334e5dcda56741c841c76367039ac3d16ad85daad47f8b9b017c8514c68",
            "0x000000000000000000000000000000000000000000000000000000000000000a"
          ],
          "data": "0x000000000000000000000000000000000000000000000000000000000001af7e0000000000000000000000000000000000000000000054b40b1f852bda000000",
          "blockHash": "0x49c87320222dca12257f5a239cd6f495cbf1f318af1b26ed5d679c91a4543988",
          "blockNumber": "0x3ebaf18",
          "transactionHash": "0x9ec0d4c5ce4ce40a33c0e6e95abbf7dc96ec97acee1cb29786b09c363ba51209",
          "transactionIndex": "0x2",
          "logIndex": "0xc",
          "removed": false
        },
        {
          "address": "0x6bf701a94e052b3e33810c4805bed0a78cabbacb",
          "topics": [
            "0x5a8da334e5dcda56741c841c76367039ac3d16ad85daad47f8b9b017c8514c68",
            "0x000000000000000000000000000000000000000000000000000000000000000b"
          ],
          "data": "0x000000000000000000000000000000000000000000000000000000000001b3cf0000000000000000000000000000000000000000000054b40b1f852bda000000",
          "blockHash": "0x49c87320222dca12257f5a239cd6f495cbf1f318af1b26ed5d679c91a4543988",
          "blockNumber": "0x3ebaf18",
          "transactionHash": "0x9ec0d4c5ce4ce40a33c0e6e95abbf7dc96ec97acee1cb29786b09c363ba51209",
          "transactionIndex": "0x2",
          "logIndex": "0xd",
          "removed": false
        },
        {
          "address": "0x6bf701a94e052b3e33810c4805bed0a78cabbacb",
          "topics": [
            "0x5a8da334e5dcda56741c841c76367039ac3d16ad85daad47f8b9b017c8514c68",
            "0x000000000000000000000000000000000000000000000000000000000000000c"
          ],
          "data": "0x000000000000000000000000000000000000000000000000000000000001b82b0000000000000000000000000000000000000000000054b40b1f852bda000000",
          "blockHash": "0x49c87320222dca12257f5a239cd6f495cbf1f318af1b26ed5d679c91a4543988",
          "blockNumber": "0x3ebaf18",
          "transactionHash": "0x9ec0d4c5ce4ce40a33c0e6e95abbf7dc96ec97acee1cb29786b09c363ba51209",
          "transactionIndex": "0x2",
          "logIndex": "0xe",
          "removed": false
        },
        {
          "address": "0x6bf701a94e052b3e33810c4805bed0a78cabbacb",
          "topics": [
            "0x5a8da334e5dcda56741c841c76367039ac3d16ad85daad47f8b9b017c8514c68",
            "0x000000000000000000000000000000000000000000000000000000000000000d"
          ],
          "data": "0x000000000000000000000000000000000000000000000000000000000001bc910000000000000000000000000000000000000000000054b40b1f852bda000000",
          "blockHash": "0x49c87320222dca12257f5a239cd6f495cbf1f318af1b26ed5d679c91a4543988",
          "blockNumber": "0x3ebaf18",
          "transactionHash": "0x9ec0d4c5ce4ce40a33c0e6e95abbf7dc96ec97acee1cb29786b09c363ba51209",
          "transactionIndex": "0x2",
          "logIndex": "0xf",
          "removed": false
        },
        {
          "address": "0x6bf701a94e052b3e33810c4805bed0a78cabbacb",
          "topics": [
            "0x5a8da334e5dcda56741c841c76367039ac3d16ad85daad47f8b9b017c8514c68",
            "0x000000000000000000000000000000000000000000000000000000000000000e"
          ],
          "data": "0x000000000000000000000000000000000000000000000000000000000001c1030000000000000000000000000000000000000000000054b40b1f852bda000000",
          "blockHash": "0x49c87320222dca12257f5a239cd6f495cbf1f318af1b26ed5d679c91a4543988",
          "blockNumber": "0x3ebaf18",
          "transactionHash": "0x9ec0d4c5ce4ce40a33c0e6e95abbf7dc96ec97acee1cb29786b09c363ba51209",
          "transactionIndex": "0x2",
          "logIndex": "0x10",
          "removed": false
        },
        {
          "address": "0x6bf701a94e052b3e33810c4805bed0a78cabbacb",
          "topics": [
            "0x5a8da334e5dcda56741c841c76367039ac3d16ad85daad47f8b9b017c8514c68",
            "0x000000000000000000000000000000000000000000000000000000000000000f"
          ],
          "data": "0x000000000000000000000000000000000000000000000000000000000001c5810000000000000000000000000000000000000000000054b40b1f852bda000000",
          "blockHash": "0x49c87320222dca12257f5a239cd6f495cbf1f318af1b26ed5d679c91a4543988",
          "blockNumber": "0x3ebaf18",
          "transactionHash": "0x9ec0d4c5ce4ce40a33c0e6e95abbf7dc96ec97acee1cb29786b09c363ba51209",
          "transactionIndex": "0x2",
          "logIndex": "0x11",
          "removed": false
        },
        {
          "address": "0x6bf701a94e052b3e33810c4805bed0a78cabbacb",
          "topics": [
            "0x5a8da334e5dcda56741c841c76367039ac3d16ad85daad47f8b9b017c8514c68",
            "0x0000000000000000000000000000000000000000000000000000000000000010"
          ],
          "data": "0x000000000000000000000000000000000000000000000000000000000001ca0a0000000000000000000000000000000000000000000054b40b1f852bda000000",
          "blockHash": "0x49c87320222dca12257f5a239cd6f495cbf1f318af1b26ed5d679c91a4543988",
          "blockNumber": "0x3ebaf18",
          "transactionHash": "0x9ec0d4c5ce4ce40a33c0e6e95abbf7dc96ec97acee1cb29786b09c363ba51209",
          "transactionIndex": "0x2",
          "logIndex": "0x12",
          "removed": false
        },
        {
          "address": "0x6bf701a94e052b3e33810c4805bed0a78cabbacb",
          "topics": [
            "0x5a8da334e5dcda56741c841c76367039ac3d16ad85daad47f8b9b017c8514c68",
            "0x0000000000000000000000000000000000000000000000000000000000000011"
          ],
          "data": "0x000000000000000000000000000000000000000000000000000000000001ce9f0000000000000000000000000000000000000000000054b40b1f852bda000000",
          "blockHash": "0x49c87320222dca12257f5a239cd6f495cbf1f318af1b26ed5d679c91a4543988",
          "blockNumber": "0x3ebaf18",
          "transactionHash": "0x9ec0d4c5ce4ce40a33c0e6e95abbf7dc96ec97acee1cb29786b09c363ba51209",
          "transactionIndex": "0x2",
          "logIndex": "0x13",
          "removed": false
        },
        {
          "address": "0x6bf701a94e052b3e33810c4805bed0a78cabbacb",
          "topics": [
            "0x5a8da334e5dcda56741c841c76367039ac3d16ad85daad47f8b9b017c8514c68",
            "0x0000000000000000000000000000000000000000000000000000000000000012"
          ],
          "data": "0x000000000000000000000000000000000000000000000000000000000001d33f0000000000000000000000000000000000000000000054b40b1f852bda000000",
          "blockHash": "0x49c87320222dca12257f5a239cd6f495cbf1f318af1b26ed5d679c91a4543988",
          "blockNumber": "0x3ebaf18",
          "transactionHash": "0x9ec0d4c5ce4ce40a33c0e6e95abbf7dc96ec97acee1cb29786b09c363ba51209",
          "transactionIndex": "0x2",
          "logIndex": "0x14",
          "removed": false
        },
        {
          "address": "0x6bf701a94e052b3e33810c4805bed0a78cabbacb",
          "topics": [
            "0x5a8da334e5dcda56741c841c76367039ac3d16ad85daad47f8b9b017c8514c68",
            "0x0000000000000000000000000000000000000000000000000000000000000013"
          ],
          "data": "0x000000000000000000000000000000000000000000000000000000000001d7ec0000000000000000000000000000000000000000000054b40b1f852bda000000",
          "blockHash": "0x49c87320222dca12257f5a239cd6f495cbf1f318af1b26ed5d679c91a4543988",
          "blockNumber": "0x3ebaf18",
          "transactionHash": "0x9ec0d4c5ce4ce40a33c0e6e95abbf7dc96ec97acee1cb29786b09c363ba51209",
          "transactionIndex": "0x2",
          "logIndex": "0x15",
          "removed": false
        },
        {
          "address": "0x6bf701a94e052b3e33810c4805bed0a78cabbacb",
          "topics": [
            "0x5a8da334e5dcda56741c841c76367039ac3d16ad85daad47f8b9b017c8514c68",
            "0x0000000000000000000000000000000000000000000000000000000000000014"
          ],
          "data": "0x000000000000000000000000000000000000000000000000000000000001dca40000000000000000000000000000000000000000000054b40b1f852bda000000",
          "blockHash": "0x49c87320222dca12257f5a239cd6f495cbf1f318af1b26ed5d679c91a4543988",
          "blockNumber": "0x3ebaf18",
          "transactionHash": "0x9ec0d4c5ce4ce40a33c0e6e95abbf7dc96ec97acee1cb29786b09c363ba51209",
          "transactionIndex": "0x2",
          "logIndex": "0x16",
          "removed": false
        },
        {
          "address": "0x6bf701a94e052b3e33810c4805bed0a78cabbacb",
          "topics": [
            "0x5a8da334e5dcda56741c841c76367039ac3d16ad85daad47f8b9b017c8514c68",
            "0x0000000000000000000000000000000000000000000000000000000000000015"
          ],
          "data": "0x000000000000000000000000000000000000000000000000000000000001e1680000000000000000000000000000000000000000000054b40b1f852bda000000",
          "blockHash": "0x49c87320222dca12257f5a239cd6f495cbf1f318af1b26ed5d679c91a4543988",
          "blockNumber": "0x3ebaf18",
          "transactionHash": "0x9ec0d4c5ce4ce40a33c0e6e95abbf7dc96ec97acee1cb29786b09c363ba51209",
          "transactionIndex": "0x2",
          "logIndex": "0x17",
          "removed": false
        },
        {
          "address": "0x6bf701a94e052b3e33810c4805bed0a78cabbacb",
          "topics": [
            "0x5a8da334e5dcda56741c841c76367039ac3d16ad85daad47f8b9b017c8514c68",
            "0x0000000000000000000000000000000000000000000000000000000000000016"
          ],
          "data": "0x000000000000000000000000000000000000000000000000000000000001e6380000000000000000000000000000000000000000000054b40b1f852bda000000",
          "blockHash": "0x49c87320222dca12257f5a239cd6f495cbf1f318af1b26ed5d679c91a4543988",
          "blockNumber": "0x3ebaf18",
          "transactionHash": "0x9ec0d4c5ce4ce40a33c0e6e95abbf7dc96ec97acee1cb29786b09c363ba51209",
          "transactionIndex": "0x2",
          "logIndex": "0x18",
          "removed": false
        },
        {
          "address": "0x6bf701a94e052b3e33810c4805bed0a78cabbacb",
          "topics": [
            "0x5a8da334e5dcda56741c841c76367039ac3d16ad85daad47f8b9b017c8514c68",
            "0x0000000000000000000000000000000000000000000000000000000000000017"
          ],
          "data": "0x000000000000000000000000000000000000000000000000000000000001eb150000000000000000000000000000000000000000000054b40b1f852bda000000",
          "blockHash": "0x49c87320222dca12257f5a239cd6f495cbf1f318af1b26ed5d679c91a4543988",
          "blockNumber": "0x3ebaf18",
          "transactionHash": "0x9ec0d4c5ce4ce40a33c0e6e95abbf7dc96ec97acee1cb29786b09c363ba51209",
          "transactionIndex": "0x2",
          "logIndex": "0x19",
          "removed": false
        },
        {
          "address": "0x6bf701a94e052b3e33810c4805bed0a78cabbacb",
          "topics": [
            "0x5a8da334e5dcda56741c841c76367039ac3d16ad85daad47f8b9b017c8514c68",
            "0x0000000000000000000000000000000000000000000000000000000000000018"
          ],
          "data": "0x000000000000000000000000000000000000000000000000000000000001effe0000000000000000000000000000000000000000000054b40b1f852bda000000",
          "blockHash": "0x49c87320222dca12257f5a239cd6f495cbf1f318af1b26ed5d679c91a4543988",
          "blockNumber": "0x3ebaf18",
          "transactionHash": "0x9ec0d4c5ce4ce40a33c0e6e95abbf7dc96ec97acee1cb29786b09c363ba51209",
          "transactionIndex": "0x2",
          "logIndex": "0x1a",
          "removed": false
        },
        {
          "address": "0x6bf701a94e052b3e33810c4805bed0a78cabbacb",
          "topics": [
            "0x5a8da334e5dcda56741c841c76367039ac3d16ad85daad47f8b9b017c8514c68",
            "0x0000000000000000000000000000000000000000000000000000000000000019"
          ],
          "data": "0x000000000000000000000000000000000000000000000000000000000001f4f40000000000000000000000000000000000000000000054b40b1f852bda000000",
          "blockHash": "0x49c87320222dca12257f5a239cd6f495cbf1f318af1b26ed5d679c91a4543988",
          "blockNumber": "0x3ebaf18",
          "transactionHash": "0x9ec0d4c5ce4ce40a33c0e6e95abbf7dc96ec97acee1cb29786b09c363ba51209",
          "transactionIndex": "0x2",
          "logIndex": "0x1b",
          "removed": false
        },
        {
          "address": "0x6bf701a94e052b3e33810c4805bed0a78cabbacb",
          "topics": [
            "0x5a8da334e5dcda56741c841c76367039ac3d16ad85daad47f8b9b017c8514c68",
            "0x000000000000000000000000000000000000000000000000000000000000001a"
          ],
          "data": "0x000000000000000000000000000000000000000000000000000000000001f9f60000000000000000000000000000000000000000000054b40b1f852bda000000",
          "blockHash": "0x49c87320222dca12257f5a239cd6f495cbf1f318af1b26ed5d679c91a4543988",
          "blockNumber": "0x3ebaf18",
          "transactionHash": "0x9ec0d4c5ce4ce40a33c0e6e95abbf7dc96ec97acee1cb29786b09c363ba51209",
          "transactionIndex": "0x2",
          "logIndex": "0x1c",
          "removed": false
        },
        {
          "address": "0x6bf701a94e052b3e33810c4805bed0a78cabbacb",
          "topics": [
            "0x5a8da334e5dcda56741c841c76367039ac3d16ad85daad47f8b9b017c8514c68",
            "0x000000000000000000000000000000000000000000000000000000000000001b"
          ],
          "data": "0x000000000000000000000000000000000000000000000000000000000001ff050000000000000000000000000000000000000000000054b40b1f852bda000000",
          "blockHash": "0x49c87320222dca12257f5a239cd6f495cbf1f318af1b26ed5d679c91a4543988",
          "blockNumber": "0x3ebaf18",
          "transactionHash": "0x9ec0d4c5ce4ce40a33c0e6e95abbf7dc96ec97acee1cb29786b09c363ba51209",
          "transactionIndex": "0x2",
          "logIndex": "0x1d",
          "removed": false
        },
        {
          "address": "0x6bf701a94e052b3e33810c4805bed0a78cabbacb",
          "topics": [
            "0x5a8da334e5dcda56741c841c76367039ac3d16ad85daad47f8b9b017c8514c68",
            "0x000000000000000000000000000000000000000000000000000000000000001c"
          ],
          "data": "0x00000000000000000000000000000000000000000000000000000000000204210000000000000000000000000000000000000000000054b40b1f852bda000000",
          "blockHash": "0x49c87320222dca12257f5a239cd6f495cbf1f318af1b26ed5d679c91a4543988",
          "blockNumber": "0x3ebaf18",
          "transactionHash": "0x9ec0d4c5ce4ce40a33c0e6e95abbf7dc96ec97acee1cb29786b09c363ba51209",
          "transactionIndex": "0x2",
          "logIndex": "0x1e",
          "removed": false
        },
        {
          "address": "0x6bf701a94e052b3e33810c4805bed0a78cabbacb",
          "topics": [
            "0x5a8da334e5dcda56741c841c76367039ac3d16ad85daad47f8b9b017c8514c68",
            "0x000000000000000000000000000000000000000000000000000000000000001d"
          ],
          "data": "0x000000000000000000000000000000000000000000000000000000000002094a0000000000000000000000000000000000000000000054b40b1f852bda000000",
          "blockHash": "0x49c87320222dca12257f5a239cd6f495cbf1f318af1b26ed5d679c91a4543988",
          "blockNumber": "0x3ebaf18",
          "transactionHash": "0x9ec0d4c5ce4ce40a33c0e6e95abbf7dc96ec97acee1cb29786b09c363ba51209",
          "transactionIndex": "0x2",
          "logIndex": "0x1f",
          "removed": false
        },
        {
          "address": "0x6bf701a94e052b3e33810c4805bed0a78cabbacb",
          "topics": [
            "0x5a8da334e5dcda56741c841c76367039ac3d16ad85daad47f8b9b017c8514c68",
            "0x000000000000000000000000000000000000000000000000000000000000001e"
          ],
          "data": "0x0000000000000000000000000000000000000000000000000000000000020e800000000000000000000000000000000000000000000054b40b1f852bda000000",
          "blockHash": "0x49c87320222dca12257f5a239cd6f495cbf1f318af1b26ed5d679c91a4543988",
          "blockNumber": "0x3ebaf18",
          "transactionHash": "0x9ec0d4c5ce4ce40a33c0e6e95abbf7dc96ec97acee1cb29786b09c363ba51209",
          "transactionIndex": "0x2",
          "logIndex": "0x20",
          "removed": false
        },
        {
          "address": "0x6bf701a94e052b3e33810c4805bed0a78cabbacb",
          "topics": [
            "0x5a8da334e5dcda56741c841c76367039ac3d16ad85daad47f8b9b017c8514c68",
            "0x000000000000000000000000000000000000000000000000000000000000001f"
          ],
          "data": "0x00000000000000000000000000000000000000000000000000000000000213c30000000000000000000000000000000000000000000054b40b1f852bda000000",
          "blockHash": "0x49c87320222dca12257f5a239cd6f495cbf1f318af1b26ed5d679c91a4543988",
          "blockNumber": "0x3ebaf18",
          "transactionHash": "0x9ec0d4c5ce4ce40a33c0e6e95abbf7dc96ec97acee1cb29786b09c363ba51209",
          "transactionIndex": "0x2",
          "logIndex": "0x21",
          "removed": false
        },
        {
          "address": "0x6bf701a94e052b3e33810c4805bed0a78cabbacb",
          "topics": [
            "0x5a8da334e5dcda56741c841c76367039ac3d16ad85daad47f8b9b017c8514c68",
            "0x0000000000000000000000000000000000000000000000000000000000000020"
          ],
          "data": "0x00000000000000000000000000000000000000000000000000000000000219140000000000000000000000000000000000000000000054b40b1f852bda000000",
          "blockHash": "0x49c87320222dca12257f5a239cd6f495cbf1f318af1b26ed5d679c91a4543988",
          "blockNumber": "0x3ebaf18",
          "transactionHash": "0x9ec0d4c5ce4ce40a33c0e6e95abbf7dc96ec97acee1cb29786b09c363ba51209",
          "transactionIndex": "0x2",
          "logIndex": "0x22",
          "removed": false
        },
        {
          "address": "0x6bf701a94e052b3e33810c4805bed0a78cabbacb",
          "topics": [
            "0x5a8da334e5dcda56741c841c76367039ac3d16ad85daad47f8b9b017c8514c68",
            "0x0000000000000000000000000000000000000000000000000000000000000021"
          ],
          "data": "0x0000000000000000000000000000000000000000000000000000000000021e730000000000000000000000000000000000000000000054b40b1f852bda000000",
          "blockHash": "0x49c87320222dca12257f5a239cd6f495cbf1f318af1b26ed5d679c91a4543988",
          "blockNumber": "0x3ebaf18",
          "transactionHash": "0x9ec0d4c5ce4ce40a33c0e6e95abbf7dc96ec97acee1cb29786b09c363ba51209",
          "transactionIndex": "0x2",
          "logIndex": "0x23",
          "removed": false
        },
        {
          "address": "0x6bf701a94e052b3e33810c4805bed0a78cabbacb",
          "topics": [
            "0x5a8da334e5dcda56741c841c76367039ac3d16ad85daad47f8b9b017c8514c68",
            "0x0000000000000000000000000000000000000000000000000000000000000022"
          ],
          "data": "0x00000000000000000000000000000000000000000000000000000000000223df0000000000000000000000000000000000000000000054b40b1f852bda000000",
          "blockHash": "0x49c87320222dca12257f5a239cd6f495cbf1f318af1b26ed5d679c91a4543988",
          "blockNumber": "0x3ebaf18",
          "transactionHash": "0x9ec0d4c5ce4ce40a33c0e6e95abbf7dc96ec97acee1cb29786b09c363ba51209",
          "transactionIndex": "0x2",
          "logIndex": "0x24",
          "removed": false
        },
        {
          "address": "0x6bf701a94e052b3e33810c4805bed0a78cabbacb",
          "topics": [
            "0x5a8da334e5dcda56741c841c76367039ac3d16ad85daad47f8b9b017c8514c68",
            "0x0000000000000000000000000000000000000000000000000000000000000023"
          ],
          "data": "0x000000000000000000000000000000000000000000000000000000000002295a0000000000000000000000000000000000000000000054b40b1f852bda000000",
          "blockHash": "0x49c87320222dca12257f5a239cd6f495cbf1f318af1b26ed5d679c91a4543988",
          "blockNumber": "0x3ebaf18",
          "transactionHash": "0x9ec0d4c5ce4ce40a33c0e6e95abbf7dc96ec97acee1cb29786b09c363ba51209",
          "transactionIndex": "0x2",
          "logIndex": "0x25",
          "removed": false
        },
        {
          "address": "0x6bf701a94e052b3e33810c4805bed0a78cabbacb",
          "topics": [
            "0x5a8da334e5dcda56741c841c76367039ac3d16ad85daad47f8b9b017c8514c68",
            "0x0000000000000000000000000000000000000000000000000000000000000024"
          ],
          "data": "0x0000000000000000000000000000000000000000000000000000000000022ee20000000000000000000000000000000000000000000054b40b1f852bda000000",
          "blockHash": "0x49c87320222dca12257f5a239cd6f495cbf1f318af1b26ed5d679c91a4543988",
          "blockNumber": "0x3ebaf18",
          "transactionHash": "0x9ec0d4c5ce4ce40a33c0e6e95abbf7dc96ec97acee1cb29786b09c363ba51209",
          "transactionIndex": "0x2",
          "logIndex": "0x26",
          "removed": false
        },
        {
          "address": "0x6bf701a94e052b3e33810c4805bed0a78cabbacb",
          "topics": [
            "0x5a8da334e5dcda56741c841c76367039ac3d16ad85daad47f8b9b017c8514c68",
            "0x0000000000000000000000000000000000000000000000000000000000000025"
          ],
          "data": "0x00000000000000000000000000000000000000000000000000000000000234790000000000000000000000000000000000000000000054b40b1f852bda000000",
          "blockHash": "0x49c87320222dca12257f5a239cd6f495cbf1f318af1b26ed5d679c91a4543988",
          "blockNumber": "0x3ebaf18",
          "transactionHash": "0x9ec0d4c5ce4ce40a33c0e6e95abbf7dc96ec97acee1cb29786b09c363ba51209",
          "transactionIndex": "0x2",
          "logIndex": "0x27",
          "removed": false
        },
        {
          "address": "0x6bf701a94e052b3e33810c4805bed0a78cabbacb",
          "topics": [
            "0x5a8da334e5dcda56741c841c76367039ac3d16ad85daad47f8b9b017c8514c68",
            "0x0000000000000000000000000000000000000000000000000000000000000026"
          ],
          "data": "0x0000000000000000000000000000000000000000000000000000000000023a1f0000000000000000000000000000000000000000000054b40b1f852bda000000",
          "blockHash": "0x49c87320222dca12257f5a239cd6f495cbf1f318af1b26ed5d679c91a4543988",
          "blockNumber": "0x3ebaf18",
          "transactionHash": "0x9ec0d4c5ce4ce40a33c0e6e95abbf7dc96ec97acee1cb29786b09c363ba51209",
          "transactionIndex": "0x2",
          "logIndex": "0x28",
          "removed": false
        },
        {
          "address": "0x6bf701a94e052b3e33810c4805bed0a78cabbacb",
          "topics": [
            "0x5a8da334e5dcda56741c841c76367039ac3d16ad85daad47f8b9b017c8514c68",
            "0x0000000000000000000000000000000000000000000000000000000000000027"
          ],
          "data": "0x0000000000000000000000000000000000000000000000000000000000023fd20000000000000000000000000000000000000000000054b40b1f852bda000000",
          "blockHash": "0x49c87320222dca12257f5a239cd6f495cbf1f318af1b26ed5d679c91a4543988",
          "blockNumber": "0x3ebaf18",
          "transactionHash": "0x9ec0d4c5ce4ce40a33c0e6e95abbf7dc96ec97acee1cb29786b09c363ba51209",
          "transactionIndex": "0x2",
          "logIndex": "0x29",
          "removed": false
        },
        {
          "address": "0x6bf701a94e052b3e33810c4805bed0a78cabbacb",
          "topics": [
            "0x5a8da334e5dcda56741c841c76367039ac3d16ad85daad47f8b9b017c8514c68",
            "0x0000000000000000000000000000000000000000000000000000000000000028"
          ],
          "data": "0x00000000000000000000000000000000000000000000000000000000000245950000000000000000000000000000000000000000000054b40b1f852bda000000",
          "blockHash": "0x49c87320222dca12257f5a239cd6f495cbf1f318af1b26ed5d679c91a4543988",
          "blockNumber": "0x3ebaf18",
          "transactionHash": "0x9ec0d4c5ce4ce40a33c0e6e95abbf7dc96ec97acee1cb29786b09c363ba51209",
          "transactionIndex": "0x2",
          "logIndex": "0x2a",
          "removed": false
        },
        {
          "address": "0x6bf701a94e052b3e33810c4805bed0a78cabbacb",
          "topics": [
            "0x5a8da334e5dcda56741c841c76367039ac3d16ad85daad47f8b9b017c8514c68",
            "0x0000000000000000000000000000000000000000000000000000000000000029"
          ],
          "data": "0x0000000000000000000000000000000000000000000000000000000000024b660000000000000000000000000000000000000000000054b40b1f852bda000000",
          "blockHash": "0x49c87320222dca12257f5a239cd6f495cbf1f318af1b26ed5d679c91a4543988",
          "blockNumber": "0x3ebaf18",
          "transactionHash": "0x9ec0d4c5ce4ce40a33c0e6e95abbf7dc96ec97acee1cb29786b09c363ba51209",
          "transactionIndex": "0x2",
          "logIndex": "0x2b",
          "removed": false
        },
        {
          "address": "0x6bf701a94e052b3e33810c4805bed0a78cabbacb",
          "topics": [
            "0x5a8da334e5dcda56741c841c76367039ac3d16ad85daad47f8b9b017c8514c68",
            "0x000000000000000000000000000000000000000000000000000000000000002a"
          ],
          "data": "0x00000000000000000000000000000000000000000000000000000000000251460000000000000000000000000000000000000000000054b40b1f852bda000000",
          "blockHash": "0x49c87320222dca12257f5a239cd6f495cbf1f318af1b26ed5d679c91a4543988",
          "blockNumber": "0x3ebaf18",
          "transactionHash": "0x9ec0d4c5ce4ce40a33c0e6e95abbf7dc96ec97acee1cb29786b09c363ba51209",
          "transactionIndex": "0x2",
          "logIndex": "0x2c",
          "removed": false
        },
        {
          "address": "0x6bf701a94e052b3e33810c4805bed0a78cabbacb",
          "topics": [
            "0x5a8da334e5dcda56741c841c76367039ac3d16ad85daad47f8b9b017c8514c68",
            "0x000000000000000000000000000000000000000000000000000000000000002b"
          ],
          "data": "0x00000000000000000000000000000000000000000000000000000000000257350000000000000000000000000000000000000000000054b40b1f852bda000000",
          "blockHash": "0x49c87320222dca12257f5a239cd6f495cbf1f318af1b26ed5d679c91a4543988",
          "blockNumber": "0x3ebaf18",
          "transactionHash": "0x9ec0d4c5ce4ce40a33c0e6e95abbf7dc96ec97acee1cb29786b09c363ba51209",
          "transactionIndex": "0x2",
          "logIndex": "0x2d",
          "removed": false
        },
        {
          "address": "0x6bf701a94e052b3e33810c4805bed0a78cabbacb",
          "topics": [
            "0x5a8da334e5dcda56741c841c76367039ac3d16ad85daad47f8b9b017c8514c68",
            "0x000000000000000000000000000000000000000000000000000000000000002c"
          ],
          "data": "0x0000000000000000000000000000000000000000000000000000000000025d330000000000000000000000000000000000000000000054b40b1f852bda000000",
          "blockHash": "0x49c87320222dca12257f5a239cd6f495cbf1f318af1b26ed5d679c91a4543988",
          "blockNumber": "0x3ebaf18",
          "transactionHash": "0x9ec0d4c5ce4ce40a33c0e6e95abbf7dc96ec97acee1cb29786b09c363ba51209",
          "transactionIndex": "0x2",
          "logIndex": "0x2e",
          "removed": false
        },
        {
          "address": "0x6bf701a94e052b3e33810c4805bed0a78cabbacb",
          "topics": [
            "0x5a8da334e5dcda56741c841c76367039ac3d16ad85daad47f8b9b017c8514c68",
            "0x000000000000000000000000000000000000000000000000000000000000002d"
          ],
          "data": "0x00000000000000000000000000000000000000000000000000000000000263410000000000000000000000000000000000000000000054b40b1f852bda000000",
          "blockHash": "0x49c87320222dca12257f5a239cd6f495cbf1f318af1b26ed5d679c91a4543988",
          "blockNumber": "0x3ebaf18",
          "transactionHash": "0x9ec0d4c5ce4ce40a33c0e6e95abbf7dc96ec97acee1cb29786b09c363ba51209",
          "transactionIndex": "0x2",
          "logIndex": "0x2f",
          "removed": false
        },
        {
          "address": "0x6bf701a94e052b3e33810c4805bed0a78cabbacb",
          "topics": [
            "0x5a8da334e5dcda56741c841c76367039ac3d16ad85daad47f8b9b017c8514c68",
            "0x000000000000000000000000000000000000000000000000000000000000002e"
          ],
          "data": "0x000000000000000000000000000000000000000000000000000000000002695e0000000000000000000000000000000000000000000054b40b1f852bda000000",
          "blockHash": "0x49c87320222dca12257f5a239cd6f495cbf1f318af1b26ed5d679c91a4543988",
          "blockNumber": "0x3ebaf18",
          "transactionHash": "0x9ec0d4c5ce4ce40a33c0e6e95abbf7dc96ec97acee1cb29786b09c363ba51209",
          "transactionIndex": "0x2",
          "logIndex": "0x30",
          "removed": false
        },
        {
          "address": "0x6bf701a94e052b3e33810c4805bed0a78cabbacb",
          "topics": [
            "0x5a8da334e5dcda56741c841c76367039ac3d16ad85daad47f8b9b017c8514c68",
            "0x000000000000000000000000000000000000000000000000000000000000002f"
          ],
          "data": "0x0000000000000000000000000000000000000000000000000000000000026f8a0000000000000000000000000000000000000000000054b40b1f852bda000000",
          "blockHash": "0x49c87320222dca12257f5a239cd6f495cbf1f318af1b26ed5d679c91a4543988",
          "blockNumber": "0x3ebaf18",
          "transactionHash": "0x9ec0d4c5ce4ce40a33c0e6e95abbf7dc96ec97acee1cb29786b09c363ba51209",
          "transactionIndex": "0x2",
          "logIndex": "0x31",
          "removed": false
        },
        {
          "address": "0x6bf701a94e052b3e33810c4805bed0a78cabbacb",
          "topics": [
            "0x5a8da334e5dcda56741c841c76367039ac3d16ad85daad47f8b9b017c8514c68",
            "0x0000000000000000000000000000000000000000000000000000000000000030"
          ],
          "data": "0x00000000000000000000000000000000000000000000000000000000000275c70000000000000000000000000000000000000000000054b40b1f852bda000000",
          "blockHash": "0x49c87320222dca12257f5a239cd6f495cbf1f318af1b26ed5d679c91a4543988",
          "blockNumber": "0x3ebaf18",
          "transactionHash": "0x9ec0d4c5ce4ce40a33c0e6e95abbf7dc96ec97acee1cb29786b09c363ba51209",
          "transactionIndex": "0x2",
          "logIndex": "0x32",
          "removed": false
        },
        {
          "address": "0x6bf701a94e052b3e33810c4805bed0a78cabbacb",
          "topics": [
            "0x5a8da334e5dcda56741c841c76367039ac3d16ad85daad47f8b9b017c8514c68",
            "0x0000000000000000000000000000000000000000000000000000000000000031"
          ],
          "data": "0x0000000000000000000000000000000000000000000000000000000000027c130000000000000000000000000000000000000000000054b40b1f852bda000000",
          "blockHash": "0x49c87320222dca12257f5a239cd6f495cbf1f318af1b26ed5d679c91a4543988",
          "blockNumber": "0x3ebaf18",
          "transactionHash": "0x9ec0d4c5ce4ce40a33c0e6e95abbf7dc96ec97acee1cb29786b09c363ba51209",
          "transactionIndex": "0x2",
          "logIndex": "0x33",
          "removed": false
        }
      ],
      "logsBloom": "0x260000801000000000400044008080000000820000108000000000000000000200020000400042000000000004000000000030000604a1a000200016002400000410300000000088808000000000040018430000000400110000000010020000090000000208400000000001000008002000400040000600000000000440000000800204000008000100000000080412180019000006000000000040100000000004000001020000200001020100000000000008028080600020100804014000401010000000001004000000000000000820200080000008200001084000603aa000400200000800080000120020000008000000008004040108008002880000",
      "type": "0x0",
      "transactionHash": "0x9ec0d4c5ce4ce40a33c0e6e95abbf7dc96ec97acee1cb29786b09c363ba51209",
      "transactionIndex": "0x2",
      "blockHash": "0x49c87320222dca12257f5a239cd6f495cbf1f318af1b26ed5d679c91a4543988",
      "blockNumber": "0x3ebaf18",
      "gasUsed": "0x269a04",
      "effectiveGasPrice": "0x3b9aca00",
      "from": "0xba391f0b052eacdc3bf9a2ee1ebd091f8f9c3828",
      "to": "0x6bf701a94e052b3e33810c4805bed0a78cabbacb",
      "contractAddress": null
    }
  ],
  "libraries": [],
  "pending": [],
  "returns": {},
  "timestamp": 1758176992,
  "chain": 97,
  "commit": "a9d70dd"
}